{
  "_format": "hh-sol-artifact-1",
  "contractName": "TokenProxy",
  "sourceName": "contracts/TokenCreator.sol",
  "abi": [
    {
      "inputs": [
        {
          "internalType": "address",
          "name": "recipient",
          "type": "address"
        }
      ],
      "name": "createToken",
      "outputs": [
        {
          "internalType": "address",
          "name": "",
          "type": "address"
        }
      ],
      "stateMutability": "nonpayable",
      "type": "function"
    }
  ],
  "bytecode": "0x608060405234801561001057600080fd5b5061102d806100206000396000f3fe608060405234801561001057600080fd5b506004361061002b5760003560e01c8063c21ab7f914610030575b600080fd5b61004361003e36600461012c565b61005f565b6040516001600160a01b03909116815260200160405180910390f35b6000808260405161006f90610107565b6001600160a01b039091168152602001604051809103906000f08015801561009b573d6000803e3d6000fd5b509050806001600160a01b03166338cc48316040518163ffffffff1660e01b8152600401602060405180830381865afa1580156100dc573d6000803e3d6000fd5b505050506040513d601f19601f820116820180604052508101906101009190610149565b9392505050565b610eba8061016783390190565b6001600160a01b038116811461012957600080fd5b50565b60006020828403121561013e57600080fd5b813561010081610114565b60006020828403121561015b57600080fd5b81516101008161011456fe60806040523480156200001157600080fd5b5060405162000eba38038062000eba83398101604081905262000034916200022e565b604051806040016040528060038152602001622224a760e91b815250604051806040016040528060038152602001622224a760e91b815250601282600390816200007f9190620002fe565b5060046200008e8382620002fe565b506005805460ff191660ff9290921691909117905550620000bb90508168056bc75e2d63100000620000c2565b50620003ec565b6001600160a01b0382166200011e5760405162461bcd60e51b815260206004820152601f60248201527f45524332303a206d696e7420746f20746865207a65726f20616464726573730060448201526064015b60405180910390fd5b6200013a81600254620001c260201b620003d51790919060201c565b6002556001600160a01b038216600090815260208181526040909120546200016d918390620003d5620001c2821b17901c565b6001600160a01b038316600081815260208181526040808320949094559251848152919290917fddf252ad1be2c89b69c2b068fc378daa952ba7f163c4a11628f55a4df523b3ef910160405180910390a35050565b600080620001d18385620003ca565b905083811015620002255760405162461bcd60e51b815260206004820152601b60248201527f536166654d6174683a206164646974696f6e206f766572666c6f770000000000604482015260640162000115565b90505b92915050565b6000602082840312156200024157600080fd5b81516001600160a01b03811681146200022557600080fd5b634e487b7160e01b600052604160045260246000fd5b600181811c908216806200028457607f821691505b602082108103620002a557634e487b7160e01b600052602260045260246000fd5b50919050565b601f821115620002f957600081815260208120601f850160051c81016020861015620002d45750805b601f850160051c820191505b81811015620002f557828155600101620002e0565b5050505b505050565b81516001600160401b038111156200031a576200031a62000259565b62000332816200032b84546200026f565b84620002ab565b602080601f8311600181146200036a5760008415620003515750858301515b600019600386901b1c1916600185901b178555620002f5565b600085815260208120601f198616915b828110156200039b578886015182559484019460019091019084016200037a565b5085821015620003ba5787850151600019600388901b60f8161c191681555b5050505050600190811b01905550565b808201808211156200022857634e487b7160e01b600052601160045260246000fd5b610abe80620003fc6000396000f3fe608060405234801561001057600080fd5b50600436106100cf5760003560e01c8063395093511161008c57806395d89b411161006657806395d89b41146101ae578063a457c2d7146101b6578063a9059cbb146101c9578063dd62ed3e146101dc57600080fd5b8063395093511461015d57806342966c681461017057806370a082311461018557600080fd5b806306fdde03146100d4578063095ea7b3146100f257806318160ddd1461011557806323b872dd14610127578063313ce5671461013a57806338cc48311461014f575b600080fd5b6100dc610215565b6040516100e9919061086f565b60405180910390f35b6101056101003660046108d9565b6102a7565b60405190151581526020016100e9565b6002545b6040519081526020016100e9565b610105610135366004610903565b6102be565b60055460405160ff90911681526020016100e9565b6040513081526020016100e9565b61010561016b3660046108d9565b610327565b61018361017e36600461093f565b61035d565b005b610119610193366004610958565b6001600160a01b031660009081526020819052604090205490565b6100dc61036a565b6101056101c43660046108d9565b610379565b6101056101d73660046108d9565b6103c8565b6101196101ea366004610973565b6001600160a01b03918216600090815260016020908152604080832093909416825291909152205490565b606060038054610224906109a6565b80601f0160208091040260200160405190810160405280929190818152602001828054610250906109a6565b801561029d5780601f106102725761010080835404028352916020019161029d565b820191906000526020600020905b81548152906001019060200180831161028057829003601f168201915b5050505050905090565b60006102b4338484610440565b5060015b92915050565b60006102cb848484610565565b61031d843361031885604051806060016040528060288152602001610a65602891396001600160a01b038a16600090815260016020908152604080832033845290915290205491906106e8565b610440565b5060019392505050565b3360008181526001602090815260408083206001600160a01b038716845290915281205490916102b491859061031890866103d5565b6103673382610722565b50565b606060048054610224906109a6565b60006102b4338461031885604051806060016040528060258152602001610a8d602591393360009081526001602090815260408083206001600160a01b038d16845290915290205491906106e8565b60006102b4338484610565565b6000806103e283856109f6565b9050838110156104395760405162461bcd60e51b815260206004820152601b60248201527f536166654d6174683a206164646974696f6e206f766572666c6f77000000000060448201526064015b60405180910390fd5b9392505050565b6001600160a01b0383166104a25760405162461bcd60e51b8152602060048201526024808201527f45524332303a20617070726f76652066726f6d20746865207a65726f206164646044820152637265737360e01b6064820152608401610430565b6001600160a01b0382166105035760405162461bcd60e51b815260206004820152602260248201527f45524332303a20617070726f766520746f20746865207a65726f206164647265604482015261737360f01b6064820152608401610430565b6001600160a01b0383811660008181526001602090815260408083209487168084529482529182902085905590518481527f8c5be1e5ebec7d5bd14f71427d1e84f3dd0314c0f7b2291e5b200ac8c7c3b92591015b60405180910390a3505050565b6001600160a01b0383166105c95760405162461bcd60e51b815260206004820152602560248201527f45524332303a207472616e736665722066726f6d20746865207a65726f206164604482015264647265737360d81b6064820152608401610430565b6001600160a01b03821661062b5760405162461bcd60e51b815260206004820152602360248201527f45524332303a207472616e7366657220746f20746865207a65726f206164647260448201526265737360e81b6064820152608401610430565b61066881604051806060016040528060268152602001610a3f602691396001600160a01b03861660009081526020819052604090205491906106e8565b6001600160a01b03808516600090815260208190526040808220939093559084168152205461069790826103d5565b6001600160a01b038381166000818152602081815260409182902094909455518481529092918616917fddf252ad1be2c89b69c2b068fc378daa952ba7f163c4a11628f55a4df523b3ef9101610558565b6000818484111561070c5760405162461bcd60e51b8152600401610430919061086f565b5060006107198486610a09565b95945050505050565b6001600160a01b0382166107825760405162461bcd60e51b815260206004820152602160248201527f45524332303a206275726e2066726f6d20746865207a65726f206164647265736044820152607360f81b6064820152608401610430565b6107bf81604051806060016040528060228152602001610a1d602291396001600160a01b03851660009081526020819052604090205491906106e8565b6001600160a01b0383166000908152602081905260409020556002546107e5908261082d565b6002556040518181526000906001600160a01b038416907fddf252ad1be2c89b69c2b068fc378daa952ba7f163c4a11628f55a4df523b3ef9060200160405180910390a35050565b600061043983836040518060400160405280601e81526020017f536166654d6174683a207375627472616374696f6e206f766572666c6f7700008152506106e8565b600060208083528351808285015260005b8181101561089c57858101830151858201604001528201610880565b506000604082860101526040601f19601f8301168501019250505092915050565b80356001600160a01b03811681146108d457600080fd5b919050565b600080604083850312156108ec57600080fd5b6108f5836108bd565b946020939093013593505050565b60008060006060848603121561091857600080fd5b610921846108bd565b925061092f602085016108bd565b9150604084013590509250925092565b60006020828403121561095157600080fd5b5035919050565b60006020828403121561096a57600080fd5b610439826108bd565b6000806040838503121561098657600080fd5b61098f836108bd565b915061099d602084016108bd565b90509250929050565b600181811c908216806109ba57607f821691505b6020821081036109da57634e487b7160e01b600052602260045260246000fd5b50919050565b634e487b7160e01b600052601160045260246000fd5b808201808211156102b8576102b86109e0565b818103818111156102b8576102b86109e056fe45524332303a206275726e20616d6f756e7420657863656564732062616c616e636545524332303a207472616e7366657220616d6f756e7420657863656564732062616c616e636545524332303a207472616e7366657220616d6f756e74206578636565647320616c6c6f77616e636545524332303a2064656372656173656420616c6c6f77616e63652062656c6f77207a65726fa164736f6c6343000810000aa164736f6c6343000810000a",
  "linkReferences": {},
  "deployedLinkReferences": {}
}