{
  "_format": "hh-sol-artifact-1",
  "contractName": "ElectricDataLandOld",
  "sourceName": "contracts/ElectricDataLandold.sol",
  "abi": [
    {
      "inputs": [
        {
          "internalType": "address",
          "name": "_domu",
          "type": "address"
        },
        {
          "internalType": "address",
          "name": "_nft",
          "type": "address"
        },
        {
          "internalType": "address",
          "name": "_tokenProxy",
          "type": "address"
        }
      ],
      "stateMutability": "nonpayable",
      "type": "constructor"
    },
    {
      "anonymous": false,
      "inputs": [
        {
          "indexed": true,
          "internalType": "address",
          "name": "owner",
          "type": "address"
        },
        {
          "indexed": true,
          "internalType": "address",
          "name": "approved",
          "type": "address"
        },
        {
          "indexed": true,
          "internalType": "uint256",
          "name": "tokenId",
          "type": "uint256"
        }
      ],
      "name": "Approval",
      "type": "event"
    },
    {
      "anonymous": false,
      "inputs": [
        {
          "indexed": true,
          "internalType": "address",
          "name": "owner",
          "type": "address"
        },
        {
          "indexed": true,
          "internalType": "address",
          "name": "operator",
          "type": "address"
        },
        {
          "indexed": false,
          "internalType": "bool",
          "name": "approved",
          "type": "bool"
        }
      ],
      "name": "ApprovalForAll",
      "type": "event"
    },
    {
      "anonymous": false,
      "inputs": [
        {
          "indexed": true,
          "internalType": "address",
          "name": "from",
          "type": "address"
        },
        {
          "indexed": true,
          "internalType": "address",
          "name": "to",
          "type": "address"
        },
        {
          "indexed": true,
          "internalType": "uint256",
          "name": "tokenId",
          "type": "uint256"
        }
      ],
      "name": "Transfer",
      "type": "event"
    },
    {
      "inputs": [
        {
          "internalType": "address",
          "name": "to",
          "type": "address"
        },
        {
          "internalType": "uint256",
          "name": "tokenId",
          "type": "uint256"
        }
      ],
      "name": "approve",
      "outputs": [],
      "stateMutability": "nonpayable",
      "type": "function"
    },
    {
      "inputs": [
        {
          "internalType": "address",
          "name": "owner",
          "type": "address"
        }
      ],
      "name": "balanceOf",
      "outputs": [
        {
          "internalType": "uint256",
          "name": "",
          "type": "uint256"
        }
      ],
      "stateMutability": "view",
      "type": "function"
    },
    {
      "inputs": [],
      "name": "baseURI",
      "outputs": [
        {
          "internalType": "string",
          "name": "",
          "type": "string"
        }
      ],
      "stateMutability": "view",
      "type": "function"
    },
    {
      "inputs": [],
      "name": "bondNFT",
      "outputs": [
        {
          "internalType": "contract IERC721",
          "name": "",
          "type": "address"
        }
      ],
      "stateMutability": "view",
      "type": "function"
    },
    {
      "inputs": [
        {
          "internalType": "uint256",
          "name": "_id",
          "type": "uint256"
        }
      ],
      "name": "burnNFT",
      "outputs": [],
      "stateMutability": "nonpayable",
      "type": "function"
    },
    {
      "inputs": [
        {
          "internalType": "address",
          "name": "_address",
          "type": "address"
        }
      ],
      "name": "contains",
      "outputs": [
        {
          "internalType": "bool",
          "name": "",
          "type": "bool"
        }
      ],
      "stateMutability": "view",
      "type": "function"
    },
    {
      "inputs": [
        {
          "internalType": "uint256",
          "name": "",
          "type": "uint256"
        }
      ],
      "name": "contractList",
      "outputs": [
        {
          "internalType": "address",
          "name": "",
          "type": "address"
        }
      ],
      "stateMutability": "view",
      "type": "function"
    },
    {
      "inputs": [
        {
          "internalType": "uint256",
          "name": "_id",
          "type": "uint256"
        }
      ],
      "name": "depositNFT",
      "outputs": [],
      "stateMutability": "nonpayable",
      "type": "function"
    },
    {
      "inputs": [],
      "name": "domu",
      "outputs": [
        {
          "internalType": "contract IERC20",
          "name": "",
          "type": "address"
        }
      ],
      "stateMutability": "view",
      "type": "function"
    },
    {
      "inputs": [
        {
          "internalType": "address",
          "name": "_owner",
          "type": "address"
        }
      ],
      "name": "getApplications",
      "outputs": [
        {
          "internalType": "uint256[]",
          "name": "",
          "type": "uint256[]"
        }
      ],
      "stateMutability": "view",
      "type": "function"
    },
    {
      "inputs": [
        {
          "internalType": "uint256",
          "name": "tokenId",
          "type": "uint256"
        }
      ],
      "name": "getApproved",
      "outputs": [
        {
          "internalType": "address",
          "name": "",
          "type": "address"
        }
      ],
      "stateMutability": "view",
      "type": "function"
    },
    {
      "inputs": [
        {
          "internalType": "uint256",
          "name": "_id",
          "type": "uint256"
        },
        {
          "internalType": "bytes32",
          "name": "_hash",
          "type": "bytes32"
        }
      ],
      "name": "getOwnershipInformation",
      "outputs": [
        {
          "internalType": "bool",
          "name": "",
          "type": "bool"
        }
      ],
      "stateMutability": "view",
      "type": "function"
    },
    {
      "inputs": [],
      "name": "getPublishingList",
      "outputs": [
        {
          "components": [
            {
              "internalType": "address",
              "name": "proposer",
              "type": "address"
            },
            {
              "internalType": "string",
              "name": "ipfsLink",
              "type": "string"
            },
            {
              "internalType": "bytes32",
              "name": "hash",
              "type": "bytes32"
            },
            {
              "internalType": "address[3]",
              "name": "validators",
              "type": "address[3]"
            },
            {
              "internalType": "uint256",
              "name": "numVotes",
              "type": "uint256"
            },
            {
              "internalType": "uint256",
              "name": "storedFee",
              "type": "uint256"
            },
            {
              "internalType": "uint256",
              "name": "status",
              "type": "uint256"
            }
          ],
          "internalType": "struct ElectricDataLandOld.Proposal[]",
          "name": "",
          "type": "tuple[]"
        }
      ],
      "stateMutability": "view",
      "type": "function"
    },
    {
      "inputs": [
        {
          "internalType": "address",
          "name": "_validator",
          "type": "address"
        }
      ],
      "name": "getValidatorQueue",
      "outputs": [
        {
          "internalType": "uint256[]",
          "name": "",
          "type": "uint256[]"
        }
      ],
      "stateMutability": "view",
      "type": "function"
    },
    {
      "inputs": [],
      "name": "getValidators",
      "outputs": [
        {
          "internalType": "address[3]",
          "name": "",
          "type": "address[3]"
        }
      ],
      "stateMutability": "view",
      "type": "function"
    },
    {
      "inputs": [
        {
          "internalType": "address",
          "name": "owner",
          "type": "address"
        },
        {
          "internalType": "address",
          "name": "operator",
          "type": "address"
        }
      ],
      "name": "isApprovedForAll",
      "outputs": [
        {
          "internalType": "bool",
          "name": "",
          "type": "bool"
        }
      ],
      "stateMutability": "view",
      "type": "function"
    },
    {
      "inputs": [],
      "name": "name",
      "outputs": [
        {
          "internalType": "string",
          "name": "",
          "type": "string"
        }
      ],
      "stateMutability": "view",
      "type": "function"
    },
    {
      "inputs": [
        {
          "internalType": "address",
          "name": "",
          "type": "address"
        },
        {
          "internalType": "address",
          "name": "",
          "type": "address"
        },
        {
          "internalType": "uint256",
          "name": "",
          "type": "uint256"
        },
        {
          "internalType": "bytes",
          "name": "",
          "type": "bytes"
        }
      ],
      "name": "onERC721Received",
      "outputs": [
        {
          "internalType": "bytes4",
          "name": "",
          "type": "bytes4"
        }
      ],
      "stateMutability": "pure",
      "type": "function"
    },
    {
      "inputs": [],
      "name": "owner",
      "outputs": [
        {
          "internalType": "address",
          "name": "",
          "type": "address"
        }
      ],
      "stateMutability": "view",
      "type": "function"
    },
    {
      "inputs": [
        {
          "internalType": "uint256",
          "name": "tokenId",
          "type": "uint256"
        }
      ],
      "name": "ownerOf",
      "outputs": [
        {
          "internalType": "address",
          "name": "",
          "type": "address"
        }
      ],
      "stateMutability": "view",
      "type": "function"
    },
    {
      "inputs": [
        {
          "internalType": "address",
          "name": "",
          "type": "address"
        },
        {
          "internalType": "uint256",
          "name": "",
          "type": "uint256"
        }
      ],
      "name": "propertyOwner",
      "outputs": [
        {
          "internalType": "uint256",
          "name": "",
          "type": "uint256"
        }
      ],
      "stateMutability": "view",
      "type": "function"
    },
    {
      "inputs": [
        {
          "internalType": "uint256",
          "name": "",
          "type": "uint256"
        }
      ],
      "name": "proposalList",
      "outputs": [
        {
          "internalType": "address",
          "name": "proposer",
          "type": "address"
        },
        {
          "internalType": "string",
          "name": "ipfsLink",
          "type": "string"
        },
        {
          "internalType": "bytes32",
          "name": "hash",
          "type": "bytes32"
        },
        {
          "internalType": "uint256",
          "name": "numVotes",
          "type": "uint256"
        },
        {
          "internalType": "uint256",
          "name": "storedFee",
          "type": "uint256"
        },
        {
          "internalType": "uint256",
          "name": "status",
          "type": "uint256"
        }
      ],
      "stateMutability": "view",
      "type": "function"
    },
    {
      "inputs": [],
      "name": "proxy",
      "outputs": [
        {
          "internalType": "contract tokenProxy",
          "name": "",
          "type": "address"
        }
      ],
      "stateMutability": "view",
      "type": "function"
    },
    {
      "inputs": [
        {
          "internalType": "uint256",
          "name": "_id",
          "type": "uint256"
        }
      ],
      "name": "returnValidators",
      "outputs": [
        {
          "internalType": "address[3]",
          "name": "",
          "type": "address[3]"
        }
      ],
      "stateMutability": "view",
      "type": "function"
    },
    {
      "inputs": [
        {
          "internalType": "address",
          "name": "from",
          "type": "address"
        },
        {
          "internalType": "address",
          "name": "to",
          "type": "address"
        },
        {
          "internalType": "uint256",
          "name": "tokenId",
          "type": "uint256"
        }
      ],
      "name": "safeTransferFrom",
      "outputs": [],
      "stateMutability": "nonpayable",
      "type": "function"
    },
    {
      "inputs": [
        {
          "internalType": "address",
          "name": "operator",
          "type": "address"
        },
        {
          "internalType": "bool",
          "name": "approved",
          "type": "bool"
        }
      ],
      "name": "setApprovalForAll",
      "outputs": [],
      "stateMutability": "nonpayable",
      "type": "function"
    },
    {
      "inputs": [
        {
          "internalType": "uint256",
          "name": "newFee",
          "type": "uint256"
        }
      ],
      "name": "setFixedFee",
      "outputs": [],
      "stateMutability": "nonpayable",
      "type": "function"
    },
    {
      "inputs": [
        {
          "internalType": "uint256",
          "name": "stakedAmount",
          "type": "uint256"
        }
      ],
      "name": "stakeDomu",
      "outputs": [],
      "stateMutability": "nonpayable",
      "type": "function"
    },
    {
      "inputs": [
        {
          "internalType": "address",
          "name": "",
          "type": "address"
        }
      ],
      "name": "stakedBalance",
      "outputs": [
        {
          "internalType": "uint256",
          "name": "",
          "type": "uint256"
        }
      ],
      "stateMutability": "view",
      "type": "function"
    },
    {
      "inputs": [
        {
          "internalType": "string",
          "name": "_ipfs",
          "type": "string"
        },
        {
          "internalType": "bytes32",
          "name": "_hash",
          "type": "bytes32"
        }
      ],
      "name": "submitProposal",
      "outputs": [],
      "stateMutability": "nonpayable",
      "type": "function"
    },
    {
      "inputs": [
        {
          "internalType": "bytes4",
          "name": "interfaceId",
          "type": "bytes4"
        }
      ],
      "name": "supportsInterface",
      "outputs": [
        {
          "internalType": "bool",
          "name": "",
          "type": "bool"
        }
      ],
      "stateMutability": "view",
      "type": "function"
    },
    {
      "inputs": [],
      "name": "symbol",
      "outputs": [
        {
          "internalType": "string",
          "name": "",
          "type": "string"
        }
      ],
      "stateMutability": "view",
      "type": "function"
    },
    {
      "inputs": [
        {
          "internalType": "uint256",
          "name": "index",
          "type": "uint256"
        }
      ],
      "name": "tokenByIndex",
      "outputs": [
        {
          "internalType": "uint256",
          "name": "",
          "type": "uint256"
        }
      ],
      "stateMutability": "view",
      "type": "function"
    },
    {
      "inputs": [
        {
          "internalType": "address",
          "name": "owner",
          "type": "address"
        },
        {
          "internalType": "uint256",
          "name": "index",
          "type": "uint256"
        }
      ],
      "name": "tokenOfOwnerByIndex",
      "outputs": [
        {
          "internalType": "uint256",
          "name": "",
          "type": "uint256"
        }
      ],
      "stateMutability": "view",
      "type": "function"
    },
    {
      "inputs": [
        {
          "internalType": "uint256",
          "name": "tokenId",
          "type": "uint256"
        }
      ],
      "name": "tokenURI",
      "outputs": [
        {
          "internalType": "string",
          "name": "",
          "type": "string"
        }
      ],
      "stateMutability": "view",
      "type": "function"
    },
    {
      "inputs": [],
      "name": "totalStaked",
      "outputs": [
        {
          "internalType": "uint256",
          "name": "",
          "type": "uint256"
        }
      ],
      "stateMutability": "view",
      "type": "function"
    },
    {
      "inputs": [],
      "name": "totalSupply",
      "outputs": [
        {
          "internalType": "uint256",
          "name": "",
          "type": "uint256"
        }
      ],
      "stateMutability": "view",
      "type": "function"
    },
    {
      "inputs": [
        {
          "internalType": "address",
          "name": "from",
          "type": "address"
        },
        {
          "internalType": "address",
          "name": "to",
          "type": "address"
        },
        {
          "internalType": "uint256",
          "name": "tokenId",
          "type": "uint256"
        }
      ],
      "name": "transferFrom",
      "outputs": [],
      "stateMutability": "nonpayable",
      "type": "function"
    },
    {
      "inputs": [
        {
          "internalType": "uint256",
          "name": "stakedAmount",
          "type": "uint256"
        }
      ],
      "name": "unstakeDomu",
      "outputs": [],
      "stateMutability": "nonpayable",
      "type": "function"
    },
    {
      "inputs": [
        {
          "internalType": "uint256",
          "name": "_id",
          "type": "uint256"
        },
        {
          "internalType": "bytes32",
          "name": "_hash",
          "type": "bytes32"
        },
        {
          "internalType": "bool",
          "name": "_decision",
          "type": "bool"
        }
      ],
      "name": "validatorDecision",
      "outputs": [],
      "stateMutability": "nonpayable",
      "type": "function"
    },
    {
      "inputs": [
        {
          "internalType": "uint256",
          "name": "",
          "type": "uint256"
        }
      ],
      "name": "validatorList",
      "outputs": [
        {
          "internalType": "address",
          "name": "",
          "type": "address"
        }
      ],
      "stateMutability": "view",
      "type": "function"
    },
    {
      "inputs": [
        {
          "internalType": "address",
          "name": "",
          "type": "address"
        },
        {
          "internalType": "uint256",
          "name": "",
          "type": "uint256"
        }
      ],
      "name": "validatorQueue",
      "outputs": [
        {
          "internalType": "uint256",
          "name": "",
          "type": "uint256"
        }
      ],
      "stateMutability": "view",
      "type": "function"
    },
    {
      "inputs": [
        {
          "internalType": "uint256",
          "name": "",
          "type": "uint256"
        },
        {
          "internalType": "address",
          "name": "",
          "type": "address"
        }
      ],
      "name": "validatorVotes",
      "outputs": [
        {
          "internalType": "bytes32",
          "name": "hash",
          "type": "bytes32"
        },
        {
          "internalType": "bool",
          "name": "voted",
          "type": "bool"
        }
      ],
      "stateMutability": "view",
      "type": "function"
    },
    {
      "inputs": [
        {
          "internalType": "uint256",
          "name": "_id",
          "type": "uint256"
        }
      ],
      "name": "withdrawNFT",
      "outputs": [],
      "stateMutability": "nonpayable",
      "type": "function"
    }
  ],
  "bytecode": "0x608060405260006011556000601455670de0b6b3a764000060155560006016553480156200002c57600080fd5b5060405162004f6638038062004f668339810160408190526200004f91620001ed565b604080518082018252601081526f115b1958dd1c9a58d1185d1853185b9960821b6020808301919091528251808401909352600383526211511360ea1b9083015290620000a36301ffc9a760e01b6200014c565b6006620000b18382620002dc565b506007620000c08282620002dc565b50620000d36380ac58cd60e01b6200014c565b620000e5635b5e139f60e01b6200014c565b620000f763780e9d6360e01b6200014c565b50506001600a55600b80546001600160a01b03199081163317909155601a80546001600160a01b03958616908316179055601980549385169382169390931790925560188054919093169116179055620003a8565b6001600160e01b03198082169003620001ab5760405162461bcd60e51b815260206004820152601c60248201527f4552433136353a20696e76616c696420696e7465726661636520696400000000604482015260640160405180910390fd5b6001600160e01b0319166000908152602081905260409020805460ff19166001179055565b80516001600160a01b0381168114620001e857600080fd5b919050565b6000806000606084860312156200020357600080fd5b6200020e84620001d0565b92506200021e60208501620001d0565b91506200022e60408501620001d0565b90509250925092565b634e487b7160e01b600052604160045260246000fd5b600181811c908216806200026257607f821691505b6020821081036200028357634e487b7160e01b600052602260045260246000fd5b50919050565b601f821115620002d757600081815260208120601f850160051c81016020861015620002b25750805b601f850160051c820191505b81811015620002d357828155600101620002be565b5050505b505050565b81516001600160401b03811115620002f857620002f862000237565b62000310816200030984546200024d565b8462000289565b602080601f8311600181146200034857600084156200032f5750858301515b600019600386901b1c1916600185901b178555620002d3565b600085815260208120601f198616915b82811015620003795788860151825594840194600190910190840162000358565b5085821015620003985787850151600019600388901b60f8161c191681555b5050505050600190811b01905550565b614bae80620003b86000396000f3fe608060405234801561001057600080fd5b50600436106102745760003560e01c80636133c06311610151578063a860ff98116100c3578063b907140d11610087578063b907140d146105fd578063c6311e3f14610610578063c87b56dd14610635578063e91a7ca614610648578063e985e9c51461065b578063ec5568891461069757600080fd5b8063a860ff98146105a9578063aa9f8c20146105bc578063b048e056146105cf578063b0f3af47146105e2578063b7ab4db5146105f557600080fd5b80636c0360eb116101155780636c0360eb1461055757806370a082311461055f578063817b1cd2146105725780638da5cb5b1461057b57806395d89b411461058e578063a22cb4651461059657600080fd5b80636133c063146104a9578063632f9605146104bc5780636352211e1461050657806363642514146105195780636a5bb5d81461052e57600080fd5b80632890e0d7116101ea57806337de8106116101ae57806337de81061461041d57806342842e0e146104305780634f6ccce71461044357806351cfc75d146104565780635dbe47e814610476578063602172671461048957600080fd5b80632890e0d7146103b15780632dc66dbc146103c45780632f745c59146103d757806331808831146103ea57806334652f7c1461040a57600080fd5b8063150b7a021161023c578063150b7a0214610323578063162734001461034f57806318160ddd146103705780631e9ced4d1461037857806322604f931461038b57806323b872dd1461039e57600080fd5b806301ffc9a714610279578063023245d7146102bb57806306fdde03146102d0578063081812fc146102e5578063095ea7b314610310575b600080fd5b6102a661028736600461421f565b6001600160e01b03191660009081526020819052604090205460ff1690565b60405190151581526020015b60405180910390f35b6102ce6102c936600461423c565b6106aa565b005b6102d8610799565b6040516102b291906142a5565b6102f86102f336600461423c565b61082b565b6040516001600160a01b0390911681526020016102b2565b6102ce61031e3660046142cd565b6108b3565b610336610331366004614385565b6109c8565b6040516001600160e01b031990911681526020016102b2565b61036261035d3660046142cd565b6109d9565b6040519081526020016102b2565b610362610a0a565b6102ce61038636600461423c565b610a1b565b6102ce610399366004614405565b610cea565b6102ce6103ac36600461445e565b610faf565b6102ce6103bf36600461423c565b610fe1565b6102a66103d236600461449f565b61106e565b6103626103e53660046142cd565b6110d7565b6103fd6103f836600461423c565b611100565b6040516102b291906144ed565b6103626104183660046142cd565b61116b565b6102ce61042b36600461423c565b611187565b6102ce61043e36600461445e565b6111b6565b61036261045136600461423c565b6111f6565b6104696104643660046144fb565b61120c565b6040516102b29190614518565b6102a66104843660046144fb565b611277565b6103626104973660046144fb565b600d6020526000908152604090205481565b6102ce6104b736600461423c565b6112d7565b6104f16104ca36600461455c565b60136020908152600092835260408084209091529082529020805460019091015460ff1682565b604080519283529015156020830152016102b2565b6102f861051436600461423c565b61149b565b6105216114c3565b6040516102b2919061458c565b6102f861053c36600461423c565b6012602052600090815260409020546001600160a01b031681565b6102d8611631565b61036261056d3660046144fb565b611640565b61036260175481565b600b546102f8906001600160a01b031681565b6102d86116cc565b6102ce6105a436600461465e565b6116db565b601a546102f8906001600160a01b031681565b6102ce6105ca36600461468c565b61179f565b6102f86105dd36600461423c565b61286b565b6019546102f8906001600160a01b031681565b6103fd612895565b61046961060b3660046144fb565b612bbb565b61062361061e36600461423c565b612c25565b6040516102b2969594939291906146c5565b6102d861064336600461423c565b612cff565b6102ce61065636600461423c565b612e70565b6102a661066936600461470e565b6001600160a01b03918216600090815260056020908152604080832093909416825291909152205460ff1690565b6018546102f8906001600160a01b031681565b6000818152601260205260409020546001600160a01b0316306106cc8361149b565b6001600160a01b0316146106fb5760405162461bcd60e51b81526004016106f29061473c565b60405180910390fd5b6040516323b872dd60e01b81526001600160a01b038216906323b872dd90610734903390309068056bc75e2d6310000090600401614764565b6020604051808303816000875af1158015610753573d6000803e3d6000fd5b505050506040513d601f19601f820116820180604052508101906107779190614788565b50610783303384613054565b600160165461079291906147bb565b6016555050565b6060600680546107a8906147ce565b80601f01602080910402602001604051908101604052809291908181526020018280546107d4906147ce565b80156108215780601f106107f657610100808354040283529160200191610821565b820191906000526020600020905b81548152906001019060200180831161080457829003601f168201915b5050505050905090565b6000610836826131d5565b6108975760405162461bcd60e51b815260206004820152602c60248201527f4552433732313a20617070726f76656420717565727920666f72206e6f6e657860448201526b34b9ba32b73a103a37b5b2b760a11b60648201526084016106f2565b506000908152600460205260409020546001600160a01b031690565b60006108be8261149b565b9050806001600160a01b0316836001600160a01b03160361092b5760405162461bcd60e51b815260206004820152602160248201527f4552433732313a20617070726f76616c20746f2063757272656e74206f776e656044820152603960f91b60648201526084016106f2565b336001600160a01b038216148061094757506109478133610669565b6109b95760405162461bcd60e51b815260206004820152603860248201527f4552433732313a20617070726f76652063616c6c6572206973206e6f74206f7760448201527f6e6572206e6f7220617070726f76656420666f7220616c6c000000000000000060648201526084016106f2565b6109c383836131e2565b505050565b630a85bd0160e11b5b949350505050565b600f60205281600052604060002081815481106109f557600080fd5b90600052602060002001600091509150505481565b6000610a166002613250565b905090565b6002600a5403610a3d5760405162461bcd60e51b81526004016106f290614802565b6002600a556019546040516370a0823160e01b81523360048201526000916001600160a01b0316906370a0823190602401602060405180830381865afa158015610a8b573d6000803e3d6000fd5b505050506040513d601f19601f82011682018060405250810190610aaf9190614839565b11610acc5760405162461bcd60e51b81526004016106f290614852565b336000908152600d6020526040902054811115610b1e5760405162461bcd60e51b815260206004820152601060248201526f42616c616e63657320746f6f2062696760801b60448201526064016106f2565b601a5460405163a9059cbb60e01b8152336004820152602481018390526001600160a01b039091169063a9059cbb906044016020604051808303816000875af1158015610b6f573d6000803e3d6000fd5b505050506040513d601f19601f82011682018060405250810190610b939190614788565b5080601754610ba291906147bb565b601755336000908152600d6020526040902054610bc09082906147bb565b336000908152600d6020526040812082905503610ce25760005b600c54811015610ce057336001600160a01b0316600c8281548110610c0157610c01614878565b6000918252602090912001546001600160a01b031603610cce57600c8054610c2b906001906147bb565b81548110610c3b57610c3b614878565b600091825260209091200154600c80546001600160a01b039092169183908110610c6757610c67614878565b9060005260206000200160006101000a8154816001600160a01b0302191690836001600160a01b03160217905550600c805480610ca657610ca661488e565b600082815260209020810160001990810180546001600160a01b031916905501905550610ce2565b80610cd8816148a4565b915050610bda565b505b506001600a55565b610cf2614106565b6019546040516370a0823160e01b81523360048201526000916001600160a01b0316906370a0823190602401602060405180830381865afa158015610d3b573d6000803e3d6000fd5b505050506040513d601f19601f82011682018060405250810190610d5f9190614839565b11610d7c5760405162461bcd60e51b81526004016106f290614852565b600c5460031115610dc75760405162461bcd60e51b81526020600482015260156024820152744e6f7420656e6f7567682076616c696461746f727360581b60448201526064016106f2565b601a546015546040516323b872dd60e01b81526001600160a01b03909216916323b872dd91610dfc9133913091600401614764565b6020604051808303816000875af1158015610e1b573d6000803e3d6000fd5b505050506040513d601f19601f82011682018060405250810190610e3f9190614788565b506000610e4a612895565b80516001600160a01b0390811660009081526010602090815260408083206014805482546001808201855593875285872001558387015186168552828520815481548085018355918752858720909101558287015186168552828520905481548084018355918652848620909101553388529087018890526060870185905290860188815260155460a0880152600e8054928301815590925285517fbb7b4a454dc3493923482f07822329ed19e8244eff582cc204f8554c3620c3fd600990920291820180546001600160a01b03191691909416178355905192935084927fbb7b4a454dc3493923482f07822329ed19e8244eff582cc204f8554c3620c3fe90910190610f57908261490b565b50604082015160028201556060820151610f779060038084019190614148565b506080820151600682015560a0820151600782015560c090910151600890910155601454610fa69060016149cb565b60145550505050565b610fba335b8261325a565b610fd65760405162461bcd60e51b81526004016106f2906149de565b6109c3838383613054565b601a546040516323b872dd60e01b81526001600160a01b03909116906323b872dd9061101e903390309068056bc75e2d6310000090600401614764565b6020604051808303816000875af115801561103d573d6000803e3d6000fd5b505050506040513d601f19601f820116820180604052508101906110619190614788565b5061106b81613340565b50565b600061107933611277565b151560011461109a5760405162461bcd60e51b81526004016106f29061473c565b81600e84815481106110ae576110ae614878565b906000526020600020906009020160020154036110cd575060016110d1565b5060005b92915050565b6001600160a01b03821660009081526001602052604081206110f990836133fa565b9392505050565b6111086141a0565b600e828154811061111b5761111b614878565b600091825260209091206040805160608101918290529260090290910160039081019182845b81546001600160a01b03168152600190910190602001808311611141575b50505050509050919050565b601060205281600052604060002081815481106109f557600080fd5b600b546001600160a01b031633146111b15760405162461bcd60e51b81526004016106f29061473c565b601555565b6111bf33610fb4565b6111db5760405162461bcd60e51b81526004016106f2906149de565b6109c383838360405180602001604052806000815250613406565b60008061120460028461348a565b509392505050565b6001600160a01b03811660009081526010602090815260409182902080548351818402810184019094528084526060939283018282801561115f57602002820191906000526020600020905b8154815260200190600101908083116112585750505050509050919050565b6000805b600c548110156110cd57826001600160a01b0316600c82815481106112a2576112a2614878565b6000918252602090912001546001600160a01b0316036112c55750600192915050565b806112cf816148a4565b91505061127b565b6002600a54036112f95760405162461bcd60e51b81526004016106f290614802565b6002600a556019546040516370a0823160e01b81523360048201526000916001600160a01b0316906370a0823190602401602060405180830381865afa158015611347573d6000803e3d6000fd5b505050506040513d601f19601f8201168201806040525081019061136b9190614839565b116113885760405162461bcd60e51b81526004016106f290614852565b601a546040516323b872dd60e01b81526001600160a01b03909116906323b872dd906113bc90339030908690600401614764565b6020604051808303816000875af11580156113db573d6000803e3d6000fd5b505050506040513d601f19601f820116820180604052508101906113ff9190614788565b508060175461140e91906149cb565b601755336000908152600d602052604090205461142c9082906149cb565b336000818152600d602052604090209190915561144890611277565b1515600003610ce257600c80546001810182556000919091527fdf6966c971051c3d54ec59162606531493a51404a002842f56009d7e5cf4a8c70180546001600160a01b03191633179055506001600a55565b60006110d182604051806060016040528060298152602001614b7960299139600291906134a6565b6060600e805480602002602001604051908101604052809291908181526020016000905b828210156116285760008481526020908190206040805160e081019091526009850290910180546001600160a01b031682526001810180549293919291840191611530906147ce565b80601f016020809104026020016040519081016040528092919081815260200182805461155c906147ce565b80156115a95780601f1061157e576101008083540402835291602001916115a9565b820191906000526020600020905b81548152906001019060200180831161158c57829003601f168201915b505050918352505060028201546020820152604080516060810180835291909201919060038085019182845b81546001600160a01b031681526001909101906020018083116115d557505050505081526020016006820154815260200160078201548152602001600882015481525050815260200190600101906114e7565b50505050905090565b6060600980546107a8906147ce565b60006001600160a01b0382166116ab5760405162461bcd60e51b815260206004820152602a60248201527f4552433732313a2062616c616e636520717565727920666f7220746865207a65604482015269726f206164647265737360b01b60648201526084016106f2565b6001600160a01b03821660009081526001602052604090206110d190613250565b6060600780546107a8906147ce565b336001600160a01b038316036117335760405162461bcd60e51b815260206004820152601960248201527f4552433732313a20617070726f766520746f2063616c6c65720000000000000060448201526064016106f2565b3360008181526005602090815260408083206001600160a01b03871680855290835292819020805460ff191686151590811790915590519081529192917f17307eab39ab6107e8899845ad3d59bd9653f200f220920489ca2b5937696c31910160405180910390a35050565b6002600a54036117c15760405162461bcd60e51b81526004016106f290614802565b6002600a55600e8054849081106117da576117da614878565b60009182526020822060036009909202010101546001600160a01b03163314806118435750600e838154811061181257611812614878565b906000526020600020906009020160030160016003811061183557611835614878565b01546001600160a01b031633145b8061188d5750600e838154811061185c5761185c614878565b906000526020600020906009020160030160026003811061187f5761187f614878565b01546001600160a01b031633145b15156001146118d05760405162461bcd60e51b815260206004820152600f60248201526e2737ba1030903b30b634b230ba37b960891b60448201526064016106f2565b600083815260136020908152604080832033845290915290206001015460ff161561192d5760405162461bcd60e51b815260206004820152600d60248201526c105b1c9958591e481d9bdd1959609a1b60448201526064016106f2565b600e838154811061194057611940614878565b9060005260206000209060090201600801546000146119945760405162461bcd60e51b815260206004820152601060248201526f141c9bdc1bdcd85b08191958da59195960821b60448201526064016106f2565b801515600003611a795760006119a9846134b3565b905060005b6003811015611a7257336001600160a01b0316600e86815481106119d4576119d4614878565b906000526020600020906009020160030182600381106119f6576119f6614878565b01546001600160a01b031603611a605781600e8681548110611a1a57611a1a614878565b90600052602060002090600902016003018260038110611a3c57611a3c614878565b0180546001600160a01b0319166001600160a01b0392909216919091179055611a72565b80611a6a816148a4565b9150506119ae565b5050612861565b600e8381548110611a8c57611a8c614878565b9060005260206000209060090201600601546001611aaa91906149cb565b600e8481548110611abd57611abd614878565b6000918252602080832060099290920290910160060192909255848152601382526040808220338352909252208281556001908101805460ff19169091179055600e805484908110611b1157611b11614878565b9060005260206000209060090201600601546003036128615760008060005b6003811015611bf9576000868152601360205260408120600e805491929189908110611b5e57611b5e614878565b90600052602060002090600902016003018360038110611b8057611b80614878565b01546001600160a01b03168152602081019190915260400160002054600e805488908110611bb057611bb0614878565b90600052602060002090600902016002015403611bd957611bd28360016149cb565b9250611be7565b611be48260016149cb565b91505b80611bf1816148a4565b915050611b30565b5081600303611fdf57611cf0600e8681548110611c1857611c18614878565b906000526020600020906009020160000160009054906101000a90046001600160a01b031686600e8881548110611c5157611c51614878565b90600052602060002090600902016001018054611c6d906147ce565b80601f0160208091040260200160405190810160405280929190818152602001828054611c99906147ce565b8015611ce65780601f10611cbb57610100808354040283529160200191611ce6565b820191906000526020600020905b815481529060010190602001808311611cc957829003601f168201915b5050505050613784565b6001600e8681548110611d0557611d05614878565b90600052602060002090600902016008018190555060006004601554611d2b9190614a45565b601a54600e80549293506001600160a01b039091169163a9059cbb919089908110611d5857611d58614878565b60009182526020909120600360099092020101546040516001600160e01b031960e084901b1681526001600160a01b039091166004820152602481018490526044016020604051808303816000875af1158015611db9573d6000803e3d6000fd5b505050506040513d601f19601f82011682018060405250810190611ddd9190614788565b50601a54600e80546001600160a01b039092169163a9059cbb919089908110611e0857611e08614878565b9060005260206000209060090201600301600160038110611e2b57611e2b614878565b015460405160e083901b6001600160e01b03191681526001600160a01b039091166004820152602481018490526044016020604051808303816000875af1158015611e7a573d6000803e3d6000fd5b505050506040513d601f19601f82011682018060405250810190611e9e9190614788565b50601a54600e80546001600160a01b039092169163a9059cbb919089908110611ec957611ec9614878565b9060005260206000209060090201600301600260038110611eec57611eec614878565b015460405160e083901b6001600160e01b03191681526001600160a01b039091166004820152602481018490526044016020604051808303816000875af1158015611f3b573d6000803e3d6000fd5b505050506040513d601f19601f82011682018060405250810190611f5f9190614788565b50601a5460405163a9059cbb60e01b81526001600160a01b0390911660048201819052602482018390529063a9059cbb906044016020604051808303816000875af1158015611fb2573d6000803e3d6000fd5b505050506040513d601f19601f82011682018060405250810190611fd69190614788565b50505050612861565b80600303611ffc576002600e8681548110611d0557611d05614878565b816002036124385761201a600e8681548110611c1857611c18614878565b6001600e868154811061202f5761202f614878565b906000526020600020906009020160080181905550600060036015546120559190614a45565b905060005b6003811015611f5f57600e878154811061207657612076614878565b906000526020600020906009020160020154601360008981526020019081526020016000206000600e8a815481106120b0576120b0614878565b906000526020600020906009020160030184600381106120d2576120d2614878565b01546001600160a01b03168152602081019190915260400160002054036121b857601a54600e80546001600160a01b039092169163a9059cbb91908a90811061211d5761211d614878565b9060005260206000209060090201600301836003811061213f5761213f614878565b015460405160e083901b6001600160e01b03191681526001600160a01b039091166004820152602481018590526044016020604051808303816000875af115801561218e573d6000803e3d6000fd5b505050506040513d601f19601f820116820180604052508101906121b29190614788565b50612426565b600d6000600e89815481106121cf576121cf614878565b906000526020600020906009020160030183600381106121f1576121f1614878565b01546001600160a01b0316815260208101919091526040016000205460115461221a91906149cb565b601181905550600d6000600e898154811061223757612237614878565b9060005260206000209060090201600301836003811061225957612259614878565b01546001600160a01b0316815260208101919091526040016000205460175461228291906147bb565b6017819055506000600d6000600e8a815481106122a1576122a1614878565b906000526020600020906009020160030184600381106122c3576122c3614878565b01546001600160a01b0316815260208101919091526040016000908120919091555b600c5481101561242457600e888154811061230257612302614878565b9060005260206000209060090201600301826003811061232457612324614878565b0154600c80546001600160a01b03909216918390811061234657612346614878565b6000918252602090912001546001600160a01b03160361241257600c8054612370906001906147bb565b8154811061238057612380614878565b600091825260209091200154600c80546001600160a01b0390921691839081106123ac576123ac614878565b9060005260206000200160006101000a8154816001600160a01b0302191690836001600160a01b03160217905550600c8054806123eb576123eb61488e565b600082815260209020810160001990810180546001600160a01b0319169055019055612424565b8061241c816148a4565b9150506122e5565b505b80612430816148a4565b91505061205a565b8060020361285e576002600e868154811061245557612455614878565b9060005260206000209060090201600801819055506000600360155461247b9190614a45565b905060005b6003811015611f5f57600e878154811061249c5761249c614878565b906000526020600020906009020160020154601360008981526020019081526020016000206000600e8a815481106124d6576124d6614878565b906000526020600020906009020160030184600381106124f8576124f8614878565b01546001600160a01b03168152602081019190915260400160002054146125de57601a54600e80546001600160a01b039092169163a9059cbb91908a90811061254357612543614878565b9060005260206000209060090201600301836003811061256557612565614878565b015460405160e083901b6001600160e01b03191681526001600160a01b039091166004820152602481018590526044016020604051808303816000875af11580156125b4573d6000803e3d6000fd5b505050506040513d601f19601f820116820180604052508101906125d89190614788565b5061284c565b600d6000600e89815481106125f5576125f5614878565b9060005260206000209060090201600301836003811061261757612617614878565b01546001600160a01b0316815260208101919091526040016000205460115461264091906149cb565b601181905550600d6000600e898154811061265d5761265d614878565b9060005260206000209060090201600301836003811061267f5761267f614878565b01546001600160a01b031681526020810191909152604001600020546017546126a891906147bb565b6017819055506000600d6000600e8a815481106126c7576126c7614878565b906000526020600020906009020160030184600381106126e9576126e9614878565b01546001600160a01b0316815260208101919091526040016000908120919091555b600c5481101561284a57600e888154811061272857612728614878565b9060005260206000209060090201600301826003811061274a5761274a614878565b0154600c80546001600160a01b03909216918390811061276c5761276c614878565b6000918252602090912001546001600160a01b03160361283857600c8054612796906001906147bb565b815481106127a6576127a6614878565b600091825260209091200154600c80546001600160a01b0390921691839081106127d2576127d2614878565b9060005260206000200160006101000a8154816001600160a01b0302191690836001600160a01b03160217905550600c8054806128115761281161488e565b600082815260209020810160001990810180546001600160a01b031916905501905561284a565b80612842816148a4565b91505061270b565b505b80612856816148a4565b915050612480565b50505b50506001600a5550565b600c818154811061287b57600080fd5b6000918252602090912001546001600160a01b0316905081565b61289d6141a0565b6128a56141a0565b600c546003036129205760005b600381101561291a57600c81815481106128ce576128ce614878565b6000918252602090912001546001600160a01b03168282600381106128f5576128f5614878565b6001600160a01b03909216602092909202015280612912816148a4565b9150506128b2565b50919050565b601754600c8054604080516020808402820181019092528281526000938493849383018282801561297a57602002820191906000526020600020905b81546001600160a01b0316815260019091019060200180831161295c575b50939450600193505050505b6004811015612bb15761299a8560016149cb565b604080514260208201526bffffffffffffffffffffffff193360601b16918101919091524460548201526074016040516020818303038152906040528051906020012060001c6129ea9190614a59565b92506000935060005b600c54811015612b9e57600d6000848381518110612a1357612a13614878565b60200260200101516001600160a01b03166001600160a01b031681526020019081526020016000205485612a4791906149cb565b9450838510612b8c57828181518110612a6257612a62614878565b602002602001015187600184612a7891906147bb565b60038110612a8857612a88614878565b60200201906001600160a01b031690816001600160a01b031681525050600d6000848381518110612abb57612abb614878565b60200260200101516001600160a01b03166001600160a01b031681526020019081526020016000205486612aef91906147bb565b600c549096508390612b029084906147bb565b81518110612b1257612b12614878565b6020026020010151838281518110612b2c57612b2c614878565b6001600160a01b0390921660209283029190910190910152600c546000908490612b579085906147bb565b81518110612b6757612b67614878565b60200260200101906001600160a01b031690816001600160a01b031681525050612b9e565b80612b96816148a4565b9150506129f3565b5080612ba9816148a4565b915050612986565b5050505050919050565b6001600160a01b0381166000908152600f602090815260409182902080548351818402810184019094528084526060939283018282801561115f57602002820191906000526020600020908154815260200190600101908083116112585750505050509050919050565b600e8181548110612c3557600080fd5b6000918252602090912060099091020180546001820180546001600160a01b03909216935090612c64906147ce565b80601f0160208091040260200160405190810160405280929190818152602001828054612c90906147ce565b8015612cdd5780601f10612cb257610100808354040283529160200191612cdd565b820191906000526020600020905b815481529060010190602001808311612cc057829003601f168201915b5050505050908060020154908060060154908060070154908060080154905086565b6060612d0a826131d5565b612d6e5760405162461bcd60e51b815260206004820152602f60248201527f4552433732314d657461646174613a2055524920717565727920666f72206e6f60448201526e3732bc34b9ba32b73a103a37b5b2b760891b60648201526084016106f2565b60008281526008602052604081208054612d87906147ce565b80601f0160208091040260200160405190810160405280929190818152602001828054612db3906147ce565b8015612e005780601f10612dd557610100808354040283529160200191612e00565b820191906000526020600020905b815481529060010190602001808311612de357829003601f168201915b505050505090506000612e11611631565b90508051600003612e23575092915050565b815115612e55578082604051602001612e3d929190614a6d565b60405160208183030381529060405292505050919050565b80612e5f8561379f565b604051602001612e3d929190614a6d565b601a546015546040516323b872dd60e01b81526001600160a01b03909216916323b872dd91612ea59133913091600401614764565b6020604051808303816000875af1158015612ec4573d6000803e3d6000fd5b505050506040513d601f19601f82011682018060405250810190612ee89190614788565b50612ef4333083610faf565b6000818152601260205260409020546001600160a01b0316612fb15760185460405163c21ab7f960e01b81523360048201526000916001600160a01b03169063c21ab7f9906024016020604051808303816000875af1158015612f5b573d6000803e3d6000fd5b505050506040513d601f19601f82011682018060405250810190612f7f9190614a9c565b600083815260126020526040902080546001600160a01b0319166001600160a01b039290921691909117905550613040565b6000818152601260205260409081902054905163a9059cbb60e01b815233600482015268056bc75e2d6310000060248201526001600160a01b0390911690819063a9059cbb906044016020604051808303816000875af1158015613019573d6000803e3d6000fd5b505050506040513d601f19601f8201168201806040525081019061303d9190614788565b50505b60165461304e9060016149cb565b60165550565b826001600160a01b03166130678261149b565b6001600160a01b0316146130cf5760405162461bcd60e51b815260206004820152602960248201527f4552433732313a207472616e73666572206f6620746f6b656e2074686174206960448201526839903737ba1037bbb760b91b60648201526084016106f2565b6001600160a01b0382166131315760405162461bcd60e51b8152602060048201526024808201527f4552433732313a207472616e7366657220746f20746865207a65726f206164646044820152637265737360e01b60648201526084016106f2565b61313c6000826131e2565b6001600160a01b038316600090815260016020526040902061315e90826138b9565b506001600160a01b038216600090815260016020526040902061318190826138c5565b5061318e600282846138d1565b5080826001600160a01b0316846001600160a01b03167fddf252ad1be2c89b69c2b068fc378daa952ba7f163c4a11628f55a4df523b3ef60405160405180910390a4505050565b60006110d16002836138e7565b600081815260046020526040902080546001600160a01b0319166001600160a01b03841690811790915581906132178261149b565b6001600160a01b03167f8c5be1e5ebec7d5bd14f71427d1e84f3dd0314c0f7b2291e5b200ac8c7c3b92560405160405180910390a45050565b60006110d1825490565b6000613265826131d5565b6132c65760405162461bcd60e51b815260206004820152602c60248201527f4552433732313a206f70657261746f7220717565727920666f72206e6f6e657860448201526b34b9ba32b73a103a37b5b2b760a11b60648201526084016106f2565b60006132d18361149b565b9050806001600160a01b0316846001600160a01b0316148061330c5750836001600160a01b03166133018461082b565b6001600160a01b0316145b806109d157506001600160a01b0380821660009081526005602090815260408083209388168352929052205460ff166109d1565b600061334b8261149b565b90506133586000836131e2565b60008281526008602052604090208054613371906147ce565b15905061338f57600082815260086020526040812061338f916141be565b6001600160a01b03811660009081526001602052604090206133b190836138b9565b506133bd6002836138ff565b5060405182906000906001600160a01b038416907fddf252ad1be2c89b69c2b068fc378daa952ba7f163c4a11628f55a4df523b3ef908390a45050565b60006110f9838361390b565b613411848484613054565b61341d84848484613991565b6134845760405162461bcd60e51b815260206004820152603260248201527f4552433732313a207472616e7366657220746f206e6f6e20455243373231526560448201527131b2b4bb32b91034b6b83632b6b2b73a32b960711b60648201526084016106f2565b50505050565b60008080806134998686613a62565b9097909650945050505050565b60006109d1848484613aff565b600080600e83815481106134c9576134c9614878565b6000918252602082206009919091020160030154600e80546001600160a01b03909216935090859081106134ff576134ff614878565b906000526020600020906009020160030160016003811061352257613522614878565b0154600e80546001600160a01b0390921692506000918690811061354857613548614878565b906000526020600020906009020160030160026003811061356b5761356b614878565b01546001600160a01b039081166000818152600d60205260408082205486851683528183205494881683529082205460175493955091938493919290916135b291906147bb565b6135bc91906147bb565b6135c691906147bb565b905060006135d58260016149cb565b604080514260208201526bffffffffffffffffffffffff193360601b16918101919091524460548201526074016040516020818303038152906040528051906020012060001c6136259190614a59565b905060005b600c5481101561377557866001600160a01b0316600c828154811061365157613651614878565b6000918252602090912001546001600160a01b031614806136a15750856001600160a01b0316600c828154811061368a5761368a614878565b6000918252602090912001546001600160a01b0316145b806136db5750846001600160a01b0316600c82815481106136c4576136c4614878565b6000918252602090912001546001600160a01b0316145b61376357600d6000600c83815481106136f6576136f6614878565b60009182526020808320909101546001600160a01b0316835282019290925260400190205461372590856149cb565b935081841061376357600c818154811061374157613741614878565b6000918252602090912001546001600160a01b03169998505050505050505050565b8061376d816148a4565b91505061362a565b50600098975050505050505050565b6109c383838360405180602001604052806000815250613b68565b6060816000036137c65750506040805180820190915260018152600360fc1b602082015290565b8160005b81156137f057806137da816148a4565b91506137e99050600a83614a45565b91506137ca565b60008167ffffffffffffffff81111561380b5761380b6142f9565b6040519080825280601f01601f191660200182016040528015613835576020820181803683370190505b50905060006138456001846147bb565b90508593505b83156138b05761385c600a85614a59565b6138679060306149cb565b60f81b828261387581614ab9565b93508151811061388757613887614878565b60200101906001600160f81b031916908160001a9053506138a9600a85614a45565b935061384b565b50949350505050565b60006110f98383613b80565b60006110f98383613c73565b60006109d184846001600160a01b038516613cba565b600081815260018301602052604081205415156110f9565b60006110f98383613d5d565b815460009082106139695760405162461bcd60e51b815260206004820152602260248201527f456e756d657261626c655365743a20696e646578206f7574206f6620626f756e604482015261647360f01b60648201526084016106f2565b82600001828154811061397e5761397e614878565b9060005260206000200154905092915050565b60006001600160a01b0384163b6139aa575060016109d1565b6000613a2b630a85bd0160e11b338887876040516024016139ce9493929190614ad0565b604051602081830303815290604052906001600160e01b0319166020820180516001600160e01b038381831617835250505050604051806060016040528060328152602001614b47603291396001600160a01b0388169190613e64565b9050600081806020019051810190613a439190614b0d565b6001600160e01b031916630a85bd0160e11b1492505050949350505050565b815460009081908310613ac25760405162461bcd60e51b815260206004820152602260248201527f456e756d657261626c654d61703a20696e646578206f7574206f6620626f756e604482015261647360f01b60648201526084016106f2565b6000846000018481548110613ad957613ad9614878565b906000526020600020906002020190508060000154816001015492509250509250929050565b60008281526001840160205260408120548281613b2f5760405162461bcd60e51b81526004016106f291906142a5565b5084613b3c6001836147bb565b81548110613b4c57613b4c614878565b9060005260206000209060020201600101549150509392505050565b613b73848484613e73565b61341d6000858584613991565b60008181526001830160205260408120548015613c69576000613ba46001836147bb565b8554909150600090613bb8906001906147bb565b90506000866000018281548110613bd157613bd1614878565b9060005260206000200154905080876000018481548110613bf457613bf4614878565b600091825260209091200155613c0b8360016149cb565b60008281526001890160205260409020558654879080613c2d57613c2d61488e565b600190038181906000526020600020016000905590558660010160008781526020019081526020016000206000905560019450505050506110d1565b60009150506110d1565b60008181526001830160205260408120546110cd575081546001818101845560008481526020808220909301849055845484825282860190935260409020919091556110d1565b6000828152600184016020526040812054808203613d215750506040805180820182528381526020808201848152865460018181018955600089815284812095516002909302909501918255915190820155865486845281880190925292909120556110f9565b8285613d2e6001846147bb565b81548110613d3e57613d3e614878565b90600052602060002090600202016001018190555060009150506110f9565b60008181526001830160205260408120548015613c69576000613d816001836147bb565b8554909150600090613d95906001906147bb565b90506000866000018281548110613dae57613dae614878565b9060005260206000209060020201905080876000018481548110613dd457613dd4614878565b60009182526020909120825460029092020190815560019182015490820155613dfe9084906149cb565b815460009081526001890160205260409020558654879080613e2257613e2261488e565b60008281526020808220600260001990940193840201828155600190810183905592909355888152898201909252604082209190915594506110d19350505050565b60606109d18484600085613fa5565b6001600160a01b038316613ec95760405162461bcd60e51b815260206004820181905260248201527f4552433732313a206d696e7420746f20746865207a65726f206164647265737360448201526064016106f2565b613ed2826131d5565b15613f1f5760405162461bcd60e51b815260206004820152601c60248201527f4552433732313a20746f6b656e20616c7265616479206d696e7465640000000060448201526064016106f2565b6001600160a01b0383166000908152600160205260409020613f4190836138c5565b50613f4e600283856138d1565b506000828152600860205260409020613f67828261490b565b5060405182906001600160a01b038516906000907fddf252ad1be2c89b69c2b068fc378daa952ba7f163c4a11628f55a4df523b3ef908290a4505050565b6060824710156140065760405162461bcd60e51b815260206004820152602660248201527f416464726573733a20696e73756666696369656e742062616c616e636520666f6044820152651c8818d85b1b60d21b60648201526084016106f2565b843b6140545760405162461bcd60e51b815260206004820152601d60248201527f416464726573733a2063616c6c20746f206e6f6e2d636f6e747261637400000060448201526064016106f2565b600080866001600160a01b031685876040516140709190614b2a565b60006040518083038185875af1925050503d80600081146140ad576040519150601f19603f3d011682016040523d82523d6000602084013e6140b2565b606091505b50915091506140c28282866140cd565b979650505050505050565b606083156140dc5750816110f9565b8251156140ec5782518084602001fd5b8160405162461bcd60e51b81526004016106f291906142a5565b6040805160e08101825260008082526060602083018190529282015290810161412d6141a0565b81526020016000815260200160008152602001600081525090565b8260038101928215614190579160200282015b8281111561419057825182546001600160a01b0319166001600160a01b0390911617825560209092019160019091019061415b565b5061419c9291506141f4565b5090565b60405180606001604052806003906020820280368337509192915050565b5080546141ca906147ce565b6000825580601f106141da575050565b601f01602090049060005260206000209081019061106b91905b5b8082111561419c57600081556001016141f5565b6001600160e01b03198116811461106b57600080fd5b60006020828403121561423157600080fd5b81356110f981614209565b60006020828403121561424e57600080fd5b5035919050565b60005b83811015614270578181015183820152602001614258565b50506000910152565b60008151808452614291816020860160208601614255565b601f01601f19169290920160200192915050565b6020815260006110f96020830184614279565b6001600160a01b038116811461106b57600080fd5b600080604083850312156142e057600080fd5b82356142eb816142b8565b946020939093013593505050565b634e487b7160e01b600052604160045260246000fd5b600067ffffffffffffffff8084111561432a5761432a6142f9565b604051601f8501601f19908116603f01168101908282118183101715614352576143526142f9565b8160405280935085815286868601111561436b57600080fd5b858560208301376000602087830101525050509392505050565b6000806000806080858703121561439b57600080fd5b84356143a6816142b8565b935060208501356143b6816142b8565b925060408501359150606085013567ffffffffffffffff8111156143d957600080fd5b8501601f810187136143ea57600080fd5b6143f98782356020840161430f565b91505092959194509250565b6000806040838503121561441857600080fd5b823567ffffffffffffffff81111561442f57600080fd5b8301601f8101851361444057600080fd5b61444f8582356020840161430f565b95602094909401359450505050565b60008060006060848603121561447357600080fd5b833561447e816142b8565b9250602084013561448e816142b8565b929592945050506040919091013590565b600080604083850312156144b257600080fd5b50508035926020909101359150565b8060005b60038110156134845781516001600160a01b03168452602093840193909101906001016144c5565b606081016110d182846144c1565b60006020828403121561450d57600080fd5b81356110f9816142b8565b6020808252825182820181905260009190848201906040850190845b8181101561455057835183529284019291840191600101614534565b50909695505050505050565b6000806040838503121561456f57600080fd5b823591506020830135614581816142b8565b809150509250929050565b60006020808301818452808551808352604092508286019150828160051b87010184880160005b8381101561464257888303603f19018552815180516001600160a01b0316845287810151610120898601819052906145ed82870182614279565b915050878201518886015260608083015161460a828801826144c1565b5050608082015160c08681019190915260a083015160e0870152909101516101009094019390935293860193908601906001016145b3565b509098975050505050505050565b801515811461106b57600080fd5b6000806040838503121561467157600080fd5b823561467c816142b8565b9150602083013561458181614650565b6000806000606084860312156146a157600080fd5b833592506020840135915060408401356146ba81614650565b809150509250925092565b6001600160a01b038716815260c0602082018190526000906146e990830188614279565b90508560408301528460608301528360808301528260a0830152979650505050505050565b6000806040838503121561472157600080fd5b823561472c816142b8565b91506020830135614581816142b8565b6020808252600e908201526d139bdd08185d5d1a1bdc9a5e995960921b604082015260600190565b6001600160a01b039384168152919092166020820152604081019190915260600190565b60006020828403121561479a57600080fd5b81516110f981614650565b634e487b7160e01b600052601160045260246000fd5b818103818111156110d1576110d16147a5565b600181811c908216806147e257607f821691505b60208210810361291a57634e487b7160e01b600052602260045260246000fd5b6020808252601f908201527f5265656e7472616e637947756172643a207265656e7472616e742063616c6c00604082015260600190565b60006020828403121561484b57600080fd5b5051919050565b6020808252600c908201526b139bdd081d995c9a599a595960a21b604082015260600190565b634e487b7160e01b600052603260045260246000fd5b634e487b7160e01b600052603160045260246000fd5b6000600182016148b6576148b66147a5565b5060010190565b601f8211156109c357600081815260208120601f850160051c810160208610156148e45750805b601f850160051c820191505b81811015614903578281556001016148f0565b505050505050565b815167ffffffffffffffff811115614925576149256142f9565b6149398161493384546147ce565b846148bd565b602080601f83116001811461496e57600084156149565750858301515b600019600386901b1c1916600185901b178555614903565b600085815260208120601f198616915b8281101561499d5788860151825594840194600190910190840161497e565b50858210156149bb5787850151600019600388901b60f8161c191681555b5050505050600190811b01905550565b808201808211156110d1576110d16147a5565b60208082526031908201527f4552433732313a207472616e736665722063616c6c6572206973206e6f74206f6040820152701ddb995c881b9bdc88185c1c1c9bdd9959607a1b606082015260800190565b634e487b7160e01b600052601260045260246000fd5b600082614a5457614a54614a2f565b500490565b600082614a6857614a68614a2f565b500690565b60008351614a7f818460208801614255565b835190830190614a93818360208801614255565b01949350505050565b600060208284031215614aae57600080fd5b81516110f9816142b8565b600081614ac857614ac86147a5565b506000190190565b6001600160a01b0385811682528416602082015260408101839052608060608201819052600090614b0390830184614279565b9695505050505050565b600060208284031215614b1f57600080fd5b81516110f981614209565b60008251614b3c818460208701614255565b919091019291505056fe4552433732313a207472616e7366657220746f206e6f6e20455243373231526563656976657220696d706c656d656e7465724552433732313a206f776e657220717565727920666f72206e6f6e6578697374656e7420746f6b656ea164736f6c6343000810000a",
  "linkReferences": {},
  "deployedLinkReferences": {}
}