{
  "_format": "hh-sol-artifact-1",
  "contractName": "ERC721",
  "sourceName": "contracts/ElectricDataLandold.sol",
  "abi": [
    {
      "inputs": [
        {
          "internalType": "string",
          "name": "name_",
          "type": "string"
        },
        {
          "internalType": "string",
          "name": "symbol_",
          "type": "string"
        }
      ],
      "stateMutability": "nonpayable",
      "type": "constructor"
    },
    {
      "anonymous": false,
      "inputs": [
        {
          "indexed": true,
          "internalType": "address",
          "name": "owner",
          "type": "address"
        },
        {
          "indexed": true,
          "internalType": "address",
          "name": "approved",
          "type": "address"
        },
        {
          "indexed": true,
          "internalType": "uint256",
          "name": "tokenId",
          "type": "uint256"
        }
      ],
      "name": "Approval",
      "type": "event"
    },
    {
      "anonymous": false,
      "inputs": [
        {
          "indexed": true,
          "internalType": "address",
          "name": "owner",
          "type": "address"
        },
        {
          "indexed": true,
          "internalType": "address",
          "name": "operator",
          "type": "address"
        },
        {
          "indexed": false,
          "internalType": "bool",
          "name": "approved",
          "type": "bool"
        }
      ],
      "name": "ApprovalForAll",
      "type": "event"
    },
    {
      "anonymous": false,
      "inputs": [
        {
          "indexed": true,
          "internalType": "address",
          "name": "from",
          "type": "address"
        },
        {
          "indexed": true,
          "internalType": "address",
          "name": "to",
          "type": "address"
        },
        {
          "indexed": true,
          "internalType": "uint256",
          "name": "tokenId",
          "type": "uint256"
        }
      ],
      "name": "Transfer",
      "type": "event"
    },
    {
      "inputs": [
        {
          "internalType": "address",
          "name": "to",
          "type": "address"
        },
        {
          "internalType": "uint256",
          "name": "tokenId",
          "type": "uint256"
        }
      ],
      "name": "approve",
      "outputs": [],
      "stateMutability": "nonpayable",
      "type": "function"
    },
    {
      "inputs": [
        {
          "internalType": "address",
          "name": "owner",
          "type": "address"
        }
      ],
      "name": "balanceOf",
      "outputs": [
        {
          "internalType": "uint256",
          "name": "",
          "type": "uint256"
        }
      ],
      "stateMutability": "view",
      "type": "function"
    },
    {
      "inputs": [],
      "name": "baseURI",
      "outputs": [
        {
          "internalType": "string",
          "name": "",
          "type": "string"
        }
      ],
      "stateMutability": "view",
      "type": "function"
    },
    {
      "inputs": [
        {
          "internalType": "uint256",
          "name": "tokenId",
          "type": "uint256"
        }
      ],
      "name": "getApproved",
      "outputs": [
        {
          "internalType": "address",
          "name": "",
          "type": "address"
        }
      ],
      "stateMutability": "view",
      "type": "function"
    },
    {
      "inputs": [
        {
          "internalType": "address",
          "name": "owner",
          "type": "address"
        },
        {
          "internalType": "address",
          "name": "operator",
          "type": "address"
        }
      ],
      "name": "isApprovedForAll",
      "outputs": [
        {
          "internalType": "bool",
          "name": "",
          "type": "bool"
        }
      ],
      "stateMutability": "view",
      "type": "function"
    },
    {
      "inputs": [],
      "name": "name",
      "outputs": [
        {
          "internalType": "string",
          "name": "",
          "type": "string"
        }
      ],
      "stateMutability": "view",
      "type": "function"
    },
    {
      "inputs": [
        {
          "internalType": "uint256",
          "name": "tokenId",
          "type": "uint256"
        }
      ],
      "name": "ownerOf",
      "outputs": [
        {
          "internalType": "address",
          "name": "",
          "type": "address"
        }
      ],
      "stateMutability": "view",
      "type": "function"
    },
    {
      "inputs": [
        {
          "internalType": "address",
          "name": "from",
          "type": "address"
        },
        {
          "internalType": "address",
          "name": "to",
          "type": "address"
        },
        {
          "internalType": "uint256",
          "name": "tokenId",
          "type": "uint256"
        }
      ],
      "name": "safeTransferFrom",
      "outputs": [],
      "stateMutability": "nonpayable",
      "type": "function"
    },
    {
      "inputs": [
        {
          "internalType": "address",
          "name": "operator",
          "type": "address"
        },
        {
          "internalType": "bool",
          "name": "approved",
          "type": "bool"
        }
      ],
      "name": "setApprovalForAll",
      "outputs": [],
      "stateMutability": "nonpayable",
      "type": "function"
    },
    {
      "inputs": [
        {
          "internalType": "bytes4",
          "name": "interfaceId",
          "type": "bytes4"
        }
      ],
      "name": "supportsInterface",
      "outputs": [
        {
          "internalType": "bool",
          "name": "",
          "type": "bool"
        }
      ],
      "stateMutability": "view",
      "type": "function"
    },
    {
      "inputs": [],
      "name": "symbol",
      "outputs": [
        {
          "internalType": "string",
          "name": "",
          "type": "string"
        }
      ],
      "stateMutability": "view",
      "type": "function"
    },
    {
      "inputs": [
        {
          "internalType": "uint256",
          "name": "index",
          "type": "uint256"
        }
      ],
      "name": "tokenByIndex",
      "outputs": [
        {
          "internalType": "uint256",
          "name": "",
          "type": "uint256"
        }
      ],
      "stateMutability": "view",
      "type": "function"
    },
    {
      "inputs": [
        {
          "internalType": "address",
          "name": "owner",
          "type": "address"
        },
        {
          "internalType": "uint256",
          "name": "index",
          "type": "uint256"
        }
      ],
      "name": "tokenOfOwnerByIndex",
      "outputs": [
        {
          "internalType": "uint256",
          "name": "",
          "type": "uint256"
        }
      ],
      "stateMutability": "view",
      "type": "function"
    },
    {
      "inputs": [
        {
          "internalType": "uint256",
          "name": "tokenId",
          "type": "uint256"
        }
      ],
      "name": "tokenURI",
      "outputs": [
        {
          "internalType": "string",
          "name": "",
          "type": "string"
        }
      ],
      "stateMutability": "view",
      "type": "function"
    },
    {
      "inputs": [],
      "name": "totalSupply",
      "outputs": [
        {
          "internalType": "uint256",
          "name": "",
          "type": "uint256"
        }
      ],
      "stateMutability": "view",
      "type": "function"
    },
    {
      "inputs": [
        {
          "internalType": "address",
          "name": "from",
          "type": "address"
        },
        {
          "internalType": "address",
          "name": "to",
          "type": "address"
        },
        {
          "internalType": "uint256",
          "name": "tokenId",
          "type": "uint256"
        }
      ],
      "name": "transferFrom",
      "outputs": [],
      "stateMutability": "nonpayable",
      "type": "function"
    }
  ],
  "bytecode": "0x60806040523480156200001157600080fd5b5060405162001af738038062001af78339810160408190526200003491620001eb565b620000466301ffc9a760e01b620000a2565b6006620000548382620002e4565b506007620000638282620002e4565b50620000766380ac58cd60e01b620000a2565b62000088635b5e139f60e01b620000a2565b6200009a63780e9d6360e01b620000a2565b5050620003b0565b6001600160e01b03198082169003620001015760405162461bcd60e51b815260206004820152601c60248201527f4552433136353a20696e76616c696420696e7465726661636520696400000000604482015260640160405180910390fd5b6001600160e01b0319166000908152602081905260409020805460ff19166001179055565b634e487b7160e01b600052604160045260246000fd5b600082601f8301126200014e57600080fd5b81516001600160401b03808211156200016b576200016b62000126565b604051601f8301601f19908116603f0116810190828211818310171562000196576200019662000126565b81604052838152602092508683858801011115620001b357600080fd5b600091505b83821015620001d75785820183015181830184015290820190620001b8565b600093810190920192909252949350505050565b60008060408385031215620001ff57600080fd5b82516001600160401b03808211156200021757600080fd5b62000225868387016200013c565b935060208501519150808211156200023c57600080fd5b506200024b858286016200013c565b9150509250929050565b600181811c908216806200026a57607f821691505b6020821081036200028b57634e487b7160e01b600052602260045260246000fd5b50919050565b601f821115620002df57600081815260208120601f850160051c81016020861015620002ba5750805b601f850160051c820191505b81811015620002db57828155600101620002c6565b5050505b505050565b81516001600160401b0381111562000300576200030062000126565b620003188162000311845462000255565b8462000291565b602080601f831160018114620003505760008415620003375750858301515b600019600386901b1c1916600185901b178555620002db565b600085815260208120601f198616915b82811015620003815788860151825594840194600190910190840162000360565b5085821015620003a05787850151600019600388901b60f8161c191681555b5050505050600190811b01905550565b61173780620003c06000396000f3fe608060405234801561001057600080fd5b50600436106101005760003560e01c80634f6ccce71161009757806395d89b411161006657806395d89b411461022c578063a22cb46514610234578063c87b56dd14610247578063e985e9c51461025a57600080fd5b80634f6ccce7146101eb5780636352211e146101fe5780636c0360eb1461021157806370a082311461021957600080fd5b806318160ddd116100d357806318160ddd1461019c57806323b872dd146101b25780632f745c59146101c557806342842e0e146101d857600080fd5b806301ffc9a71461010557806306fdde0314610147578063081812fc1461015c578063095ea7b314610187575b600080fd5b61013261011336600461130e565b6001600160e01b03191660009081526020819052604090205460ff1690565b60405190151581526020015b60405180910390f35b61014f610296565b60405161013e919061137b565b61016f61016a36600461138e565b610328565b6040516001600160a01b03909116815260200161013e565b61019a6101953660046113c3565b6103b5565b005b6101a46104ca565b60405190815260200161013e565b61019a6101c03660046113ed565b6104db565b6101a46101d33660046113c3565b61050d565b61019a6101e63660046113ed565b610538565b6101a46101f936600461138e565b610578565b61016f61020c36600461138e565b61058e565b61014f6105b6565b6101a4610227366004611429565b6105c5565b61014f610651565b61019a610242366004611444565b610660565b61014f61025536600461138e565b610724565b610132610268366004611480565b6001600160a01b03918216600090815260056020908152604080832093909416825291909152205460ff1690565b6060600680546102a5906114b3565b80601f01602080910402602001604051908101604052809291908181526020018280546102d1906114b3565b801561031e5780601f106102f35761010080835404028352916020019161031e565b820191906000526020600020905b81548152906001019060200180831161030157829003601f168201915b5050505050905090565b600061033382610895565b6103995760405162461bcd60e51b815260206004820152602c60248201527f4552433732313a20617070726f76656420717565727920666f72206e6f6e657860448201526b34b9ba32b73a103a37b5b2b760a11b60648201526084015b60405180910390fd5b506000908152600460205260409020546001600160a01b031690565b60006103c08261058e565b9050806001600160a01b0316836001600160a01b03160361042d5760405162461bcd60e51b815260206004820152602160248201527f4552433732313a20617070726f76616c20746f2063757272656e74206f776e656044820152603960f91b6064820152608401610390565b336001600160a01b038216148061044957506104498133610268565b6104bb5760405162461bcd60e51b815260206004820152603860248201527f4552433732313a20617070726f76652063616c6c6572206973206e6f74206f7760448201527f6e6572206e6f7220617070726f76656420666f7220616c6c00000000000000006064820152608401610390565b6104c583836108a2565b505050565b60006104d66002610910565b905090565b6104e6335b8261091a565b6105025760405162461bcd60e51b8152600401610390906114ed565b6104c5838383610a04565b6001600160a01b038216600090815260016020526040812061052f9083610b85565b90505b92915050565b610541336104e0565b61055d5760405162461bcd60e51b8152600401610390906114ed565b6104c583838360405180602001604052806000815250610b91565b600080610586600284610c15565b509392505050565b6000610532826040518060600160405280602981526020016117026029913960029190610c31565b6060600980546102a5906114b3565b60006001600160a01b0382166106305760405162461bcd60e51b815260206004820152602a60248201527f4552433732313a2062616c616e636520717565727920666f7220746865207a65604482015269726f206164647265737360b01b6064820152608401610390565b6001600160a01b038216600090815260016020526040902061053290610910565b6060600780546102a5906114b3565b336001600160a01b038316036106b85760405162461bcd60e51b815260206004820152601960248201527f4552433732313a20617070726f766520746f2063616c6c6572000000000000006044820152606401610390565b3360008181526005602090815260408083206001600160a01b03871680855290835292819020805460ff191686151590811790915590519081529192917f17307eab39ab6107e8899845ad3d59bd9653f200f220920489ca2b5937696c31910160405180910390a35050565b606061072f82610895565b6107935760405162461bcd60e51b815260206004820152602f60248201527f4552433732314d657461646174613a2055524920717565727920666f72206e6f60448201526e3732bc34b9ba32b73a103a37b5b2b760891b6064820152608401610390565b600082815260086020526040812080546107ac906114b3565b80601f01602080910402602001604051908101604052809291908181526020018280546107d8906114b3565b80156108255780601f106107fa57610100808354040283529160200191610825565b820191906000526020600020905b81548152906001019060200180831161080857829003601f168201915b5050505050905060006108366105b6565b90508051600003610848575092915050565b81511561087a57808260405160200161086292919061153e565b60405160208183030381529060405292505050919050565b8061088485610c48565b60405160200161086292919061153e565b6000610532600283610d62565b600081815260046020526040902080546001600160a01b0319166001600160a01b03841690811790915581906108d78261058e565b6001600160a01b03167f8c5be1e5ebec7d5bd14f71427d1e84f3dd0314c0f7b2291e5b200ac8c7c3b92560405160405180910390a45050565b6000610532825490565b600061092582610895565b6109865760405162461bcd60e51b815260206004820152602c60248201527f4552433732313a206f70657261746f7220717565727920666f72206e6f6e657860448201526b34b9ba32b73a103a37b5b2b760a11b6064820152608401610390565b60006109918361058e565b9050806001600160a01b0316846001600160a01b031614806109cc5750836001600160a01b03166109c184610328565b6001600160a01b0316145b806109fc57506001600160a01b0380821660009081526005602090815260408083209388168352929052205460ff165b949350505050565b826001600160a01b0316610a178261058e565b6001600160a01b031614610a7f5760405162461bcd60e51b815260206004820152602960248201527f4552433732313a207472616e73666572206f6620746f6b656e2074686174206960448201526839903737ba1037bbb760b91b6064820152608401610390565b6001600160a01b038216610ae15760405162461bcd60e51b8152602060048201526024808201527f4552433732313a207472616e7366657220746f20746865207a65726f206164646044820152637265737360e01b6064820152608401610390565b610aec6000826108a2565b6001600160a01b0383166000908152600160205260409020610b0e9082610d7a565b506001600160a01b0382166000908152600160205260409020610b319082610d86565b50610b3e60028284610d92565b5080826001600160a01b0316846001600160a01b03167fddf252ad1be2c89b69c2b068fc378daa952ba7f163c4a11628f55a4df523b3ef60405160405180910390a4505050565b600061052f8383610da8565b610b9c848484610a04565b610ba884848484610e2e565b610c0f5760405162461bcd60e51b815260206004820152603260248201527f4552433732313a207472616e7366657220746f206e6f6e20455243373231526560448201527131b2b4bb32b91034b6b83632b6b2b73a32b960711b6064820152608401610390565b50505050565b6000808080610c248686610eff565b9097909650945050505050565b6000610c3e848484610f9c565b90505b9392505050565b606081600003610c6f5750506040805180820190915260018152600360fc1b602082015290565b8160005b8115610c995780610c8381611583565b9150610c929050600a836115b2565b9150610c73565b60008167ffffffffffffffff811115610cb457610cb46115c6565b6040519080825280601f01601f191660200182016040528015610cde576020820181803683370190505b5090506000610cee6001846115dc565b90508593505b8315610d5957610d05600a856115ef565b610d10906030611603565b60f81b8282610d1e81611616565b935081518110610d3057610d3061162d565b60200101906001600160f81b031916908160001a905350610d52600a856115b2565b9350610cf4565b50949350505050565b6000818152600183016020526040812054151561052f565b600061052f8383611005565b600061052f83836110f8565b6000610c3e84846001600160a01b038516611147565b81546000908210610e065760405162461bcd60e51b815260206004820152602260248201527f456e756d657261626c655365743a20696e646578206f7574206f6620626f756e604482015261647360f01b6064820152608401610390565b826000018281548110610e1b57610e1b61162d565b9060005260206000200154905092915050565b60006001600160a01b0384163b610e47575060016109fc565b6000610ec8630a85bd0160e11b33888787604051602401610e6b9493929190611643565b604051602081830303815290604052906001600160e01b0319166020820180516001600160e01b0383818316178352505050506040518060600160405280603281526020016116d0603291396001600160a01b03881691906111ea565b9050600081806020019051810190610ee09190611680565b6001600160e01b031916630a85bd0160e11b1492505050949350505050565b815460009081908310610f5f5760405162461bcd60e51b815260206004820152602260248201527f456e756d657261626c654d61703a20696e646578206f7574206f6620626f756e604482015261647360f01b6064820152608401610390565b6000846000018481548110610f7657610f7661162d565b906000526020600020906002020190508060000154816001015492509250509250929050565b60008281526001840160205260408120548281610fcc5760405162461bcd60e51b8152600401610390919061137b565b5084610fd96001836115dc565b81548110610fe957610fe961162d565b9060005260206000209060020201600101549150509392505050565b600081815260018301602052604081205480156110ee5760006110296001836115dc565b855490915060009061103d906001906115dc565b905060008660000182815481106110565761105661162d565b90600052602060002001549050808760000184815481106110795761107961162d565b600091825260209091200155611090836001611603565b600082815260018901602052604090205586548790806110b2576110b261169d565b60019003818190600052602060002001600090559055866001016000878152602001908152602001600020600090556001945050505050610532565b6000915050610532565b600081815260018301602052604081205461113f57508154600181810184556000848152602080822090930184905584548482528286019093526040902091909155610532565b506000610532565b60008281526001840160205260408120548082036111ae575050604080518082018252838152602080820184815286546001818101895560008981528481209551600290930290950191825591519082015586548684528188019092529290912055610c41565b82856111bb6001846115dc565b815481106111cb576111cb61162d565b9060005260206000209060020201600101819055506000915050610c41565b6060610c3e848460008585843b6112435760405162461bcd60e51b815260206004820152601d60248201527f416464726573733a2063616c6c20746f206e6f6e2d636f6e74726163740000006044820152606401610390565b600080866001600160a01b0316858760405161125f91906116b3565b60006040518083038185875af1925050503d806000811461129c576040519150601f19603f3d011682016040523d82523d6000602084013e6112a1565b606091505b50915091506112b18282866112bc565b979650505050505050565b606083156112cb575081610c41565b8251156112db5782518084602001fd5b8160405162461bcd60e51b8152600401610390919061137b565b6001600160e01b03198116811461130b57600080fd5b50565b60006020828403121561132057600080fd5b8135610c41816112f5565b60005b8381101561134657818101518382015260200161132e565b50506000910152565b6000815180845261136781602086016020860161132b565b601f01601f19169290920160200192915050565b60208152600061052f602083018461134f565b6000602082840312156113a057600080fd5b5035919050565b80356001600160a01b03811681146113be57600080fd5b919050565b600080604083850312156113d657600080fd5b6113df836113a7565b946020939093013593505050565b60008060006060848603121561140257600080fd5b61140b846113a7565b9250611419602085016113a7565b9150604084013590509250925092565b60006020828403121561143b57600080fd5b61052f826113a7565b6000806040838503121561145757600080fd5b611460836113a7565b91506020830135801515811461147557600080fd5b809150509250929050565b6000806040838503121561149357600080fd5b61149c836113a7565b91506114aa602084016113a7565b90509250929050565b600181811c908216806114c757607f821691505b6020821081036114e757634e487b7160e01b600052602260045260246000fd5b50919050565b60208082526031908201527f4552433732313a207472616e736665722063616c6c6572206973206e6f74206f6040820152701ddb995c881b9bdc88185c1c1c9bdd9959607a1b606082015260800190565b6000835161155081846020880161132b565b83519083019061156481836020880161132b565b01949350505050565b634e487b7160e01b600052601160045260246000fd5b6000600182016115955761159561156d565b5060010190565b634e487b7160e01b600052601260045260246000fd5b6000826115c1576115c161159c565b500490565b634e487b7160e01b600052604160045260246000fd5b818103818111156105325761053261156d565b6000826115fe576115fe61159c565b500690565b808201808211156105325761053261156d565b6000816116255761162561156d565b506000190190565b634e487b7160e01b600052603260045260246000fd5b6001600160a01b03858116825284166020820152604081018390526080606082018190526000906116769083018461134f565b9695505050505050565b60006020828403121561169257600080fd5b8151610c41816112f5565b634e487b7160e01b600052603160045260246000fd5b600082516116c581846020870161132b565b919091019291505056fe4552433732313a207472616e7366657220746f206e6f6e20455243373231526563656976657220696d706c656d656e7465724552433732313a206f776e657220717565727920666f72206e6f6e6578697374656e7420746f6b656ea164736f6c6343000810000a",
  "linkReferences": {},
  "deployedLinkReferences": {}
}