{
  "_format": "hh-sol-artifact-1",
  "contractName": "ElectricDataLand",
  "sourceName": "contracts/ElectricDataLand.sol",
  "abi": [
    {
      "anonymous": false,
      "inputs": [
        {
          "indexed": true,
          "internalType": "address",
          "name": "owner",
          "type": "address"
        },
        {
          "indexed": true,
          "internalType": "address",
          "name": "approved",
          "type": "address"
        },
        {
          "indexed": true,
          "internalType": "uint256",
          "name": "tokenId",
          "type": "uint256"
        }
      ],
      "name": "Approval",
      "type": "event"
    },
    {
      "anonymous": false,
      "inputs": [
        {
          "indexed": true,
          "internalType": "address",
          "name": "owner",
          "type": "address"
        },
        {
          "indexed": true,
          "internalType": "address",
          "name": "operator",
          "type": "address"
        },
        {
          "indexed": false,
          "internalType": "bool",
          "name": "approved",
          "type": "bool"
        }
      ],
      "name": "ApprovalForAll",
      "type": "event"
    },
    {
      "anonymous": false,
      "inputs": [
        {
          "indexed": false,
          "internalType": "uint8",
          "name": "version",
          "type": "uint8"
        }
      ],
      "name": "Initialized",
      "type": "event"
    },
    {
      "anonymous": false,
      "inputs": [
        {
          "indexed": true,
          "internalType": "address",
          "name": "from",
          "type": "address"
        },
        {
          "indexed": true,
          "internalType": "address",
          "name": "to",
          "type": "address"
        },
        {
          "indexed": true,
          "internalType": "uint256",
          "name": "tokenId",
          "type": "uint256"
        }
      ],
      "name": "Transfer",
      "type": "event"
    },
    {
      "inputs": [
        {
          "internalType": "address",
          "name": "to",
          "type": "address"
        },
        {
          "internalType": "uint256",
          "name": "tokenId",
          "type": "uint256"
        }
      ],
      "name": "approve",
      "outputs": [],
      "stateMutability": "nonpayable",
      "type": "function"
    },
    {
      "inputs": [
        {
          "internalType": "address",
          "name": "owner",
          "type": "address"
        }
      ],
      "name": "balanceOf",
      "outputs": [
        {
          "internalType": "uint256",
          "name": "",
          "type": "uint256"
        }
      ],
      "stateMutability": "view",
      "type": "function"
    },
    {
      "inputs": [],
      "name": "baseURI",
      "outputs": [
        {
          "internalType": "string",
          "name": "",
          "type": "string"
        }
      ],
      "stateMutability": "view",
      "type": "function"
    },
    {
      "inputs": [],
      "name": "bondNFT",
      "outputs": [
        {
          "internalType": "contract IERC721",
          "name": "",
          "type": "address"
        }
      ],
      "stateMutability": "view",
      "type": "function"
    },
    {
      "inputs": [
        {
          "internalType": "uint256",
          "name": "_id",
          "type": "uint256"
        }
      ],
      "name": "burnNFT",
      "outputs": [],
      "stateMutability": "nonpayable",
      "type": "function"
    },
    {
      "inputs": [
        {
          "internalType": "address",
          "name": "_address",
          "type": "address"
        }
      ],
      "name": "contains",
      "outputs": [
        {
          "internalType": "bool",
          "name": "",
          "type": "bool"
        }
      ],
      "stateMutability": "view",
      "type": "function"
    },
    {
      "inputs": [
        {
          "internalType": "uint256",
          "name": "",
          "type": "uint256"
        }
      ],
      "name": "contractList",
      "outputs": [
        {
          "internalType": "address",
          "name": "",
          "type": "address"
        }
      ],
      "stateMutability": "view",
      "type": "function"
    },
    {
      "inputs": [
        {
          "internalType": "uint256",
          "name": "_id",
          "type": "uint256"
        }
      ],
      "name": "depositNFT",
      "outputs": [],
      "stateMutability": "nonpayable",
      "type": "function"
    },
    {
      "inputs": [],
      "name": "domu",
      "outputs": [
        {
          "internalType": "contract IERC20",
          "name": "",
          "type": "address"
        }
      ],
      "stateMutability": "view",
      "type": "function"
    },
    {
      "inputs": [
        {
          "internalType": "address",
          "name": "_token",
          "type": "address"
        },
        {
          "internalType": "uint256",
          "name": "amount",
          "type": "uint256"
        }
      ],
      "name": "emergencyWithdrawTokens",
      "outputs": [],
      "stateMutability": "nonpayable",
      "type": "function"
    },
    {
      "inputs": [
        {
          "internalType": "address",
          "name": "_owner",
          "type": "address"
        }
      ],
      "name": "getApplications",
      "outputs": [
        {
          "internalType": "uint256[]",
          "name": "",
          "type": "uint256[]"
        }
      ],
      "stateMutability": "view",
      "type": "function"
    },
    {
      "inputs": [
        {
          "internalType": "uint256",
          "name": "tokenId",
          "type": "uint256"
        }
      ],
      "name": "getApproved",
      "outputs": [
        {
          "internalType": "address",
          "name": "",
          "type": "address"
        }
      ],
      "stateMutability": "view",
      "type": "function"
    },
    {
      "inputs": [
        {
          "internalType": "uint256",
          "name": "_id",
          "type": "uint256"
        },
        {
          "internalType": "bytes32",
          "name": "_hash",
          "type": "bytes32"
        }
      ],
      "name": "getOwnershipInformation",
      "outputs": [
        {
          "internalType": "bool",
          "name": "",
          "type": "bool"
        }
      ],
      "stateMutability": "view",
      "type": "function"
    },
    {
      "inputs": [],
      "name": "getPublishingList",
      "outputs": [
        {
          "components": [
            {
              "internalType": "address",
              "name": "proposer",
              "type": "address"
            },
            {
              "internalType": "string",
              "name": "ipfsLink",
              "type": "string"
            },
            {
              "internalType": "bytes32",
              "name": "hash",
              "type": "bytes32"
            },
            {
              "internalType": "address[3]",
              "name": "validators",
              "type": "address[3]"
            },
            {
              "internalType": "uint256",
              "name": "numVotes",
              "type": "uint256"
            },
            {
              "internalType": "uint256",
              "name": "storedFee",
              "type": "uint256"
            },
            {
              "internalType": "uint256",
              "name": "status",
              "type": "uint256"
            }
          ],
          "internalType": "struct ElectricDataLand.Proposal[]",
          "name": "",
          "type": "tuple[]"
        }
      ],
      "stateMutability": "view",
      "type": "function"
    },
    {
      "inputs": [
        {
          "internalType": "address",
          "name": "_validator",
          "type": "address"
        }
      ],
      "name": "getValidatorQueue",
      "outputs": [
        {
          "internalType": "uint256[]",
          "name": "",
          "type": "uint256[]"
        }
      ],
      "stateMutability": "view",
      "type": "function"
    },
    {
      "inputs": [],
      "name": "getValidators",
      "outputs": [
        {
          "internalType": "address[3]",
          "name": "",
          "type": "address[3]"
        }
      ],
      "stateMutability": "view",
      "type": "function"
    },
    {
      "inputs": [
        {
          "internalType": "address",
          "name": "_domu",
          "type": "address"
        },
        {
          "internalType": "address",
          "name": "_nft",
          "type": "address"
        },
        {
          "internalType": "address",
          "name": "_tokenProxy",
          "type": "address"
        }
      ],
      "name": "initialize",
      "outputs": [],
      "stateMutability": "nonpayable",
      "type": "function"
    },
    {
      "inputs": [
        {
          "internalType": "address",
          "name": "owner",
          "type": "address"
        },
        {
          "internalType": "address",
          "name": "operator",
          "type": "address"
        }
      ],
      "name": "isApprovedForAll",
      "outputs": [
        {
          "internalType": "bool",
          "name": "",
          "type": "bool"
        }
      ],
      "stateMutability": "view",
      "type": "function"
    },
    {
      "inputs": [],
      "name": "name",
      "outputs": [
        {
          "internalType": "string",
          "name": "",
          "type": "string"
        }
      ],
      "stateMutability": "view",
      "type": "function"
    },
    {
      "inputs": [
        {
          "internalType": "address",
          "name": "",
          "type": "address"
        },
        {
          "internalType": "address",
          "name": "",
          "type": "address"
        },
        {
          "internalType": "uint256",
          "name": "",
          "type": "uint256"
        },
        {
          "internalType": "bytes",
          "name": "",
          "type": "bytes"
        }
      ],
      "name": "onERC721Received",
      "outputs": [
        {
          "internalType": "bytes4",
          "name": "",
          "type": "bytes4"
        }
      ],
      "stateMutability": "pure",
      "type": "function"
    },
    {
      "inputs": [],
      "name": "owner",
      "outputs": [
        {
          "internalType": "address",
          "name": "",
          "type": "address"
        }
      ],
      "stateMutability": "view",
      "type": "function"
    },
    {
      "inputs": [
        {
          "internalType": "uint256",
          "name": "tokenId",
          "type": "uint256"
        }
      ],
      "name": "ownerOf",
      "outputs": [
        {
          "internalType": "address",
          "name": "",
          "type": "address"
        }
      ],
      "stateMutability": "view",
      "type": "function"
    },
    {
      "inputs": [
        {
          "internalType": "address",
          "name": "",
          "type": "address"
        },
        {
          "internalType": "uint256",
          "name": "",
          "type": "uint256"
        }
      ],
      "name": "propertyOwner",
      "outputs": [
        {
          "internalType": "uint256",
          "name": "",
          "type": "uint256"
        }
      ],
      "stateMutability": "view",
      "type": "function"
    },
    {
      "inputs": [
        {
          "internalType": "uint256",
          "name": "",
          "type": "uint256"
        }
      ],
      "name": "proposalList",
      "outputs": [
        {
          "internalType": "address",
          "name": "proposer",
          "type": "address"
        },
        {
          "internalType": "string",
          "name": "ipfsLink",
          "type": "string"
        },
        {
          "internalType": "bytes32",
          "name": "hash",
          "type": "bytes32"
        },
        {
          "internalType": "uint256",
          "name": "numVotes",
          "type": "uint256"
        },
        {
          "internalType": "uint256",
          "name": "storedFee",
          "type": "uint256"
        },
        {
          "internalType": "uint256",
          "name": "status",
          "type": "uint256"
        }
      ],
      "stateMutability": "view",
      "type": "function"
    },
    {
      "inputs": [],
      "name": "proxy",
      "outputs": [
        {
          "internalType": "contract tokenProxy",
          "name": "",
          "type": "address"
        }
      ],
      "stateMutability": "view",
      "type": "function"
    },
    {
      "inputs": [
        {
          "internalType": "uint256",
          "name": "_id",
          "type": "uint256"
        }
      ],
      "name": "returnValidators",
      "outputs": [
        {
          "internalType": "address[3]",
          "name": "",
          "type": "address[3]"
        }
      ],
      "stateMutability": "view",
      "type": "function"
    },
    {
      "inputs": [
        {
          "internalType": "address",
          "name": "from",
          "type": "address"
        },
        {
          "internalType": "address",
          "name": "to",
          "type": "address"
        },
        {
          "internalType": "uint256",
          "name": "tokenId",
          "type": "uint256"
        }
      ],
      "name": "safeTransferFrom",
      "outputs": [],
      "stateMutability": "nonpayable",
      "type": "function"
    },
    {
      "inputs": [
        {
          "internalType": "address",
          "name": "from",
          "type": "address"
        },
        {
          "internalType": "address",
          "name": "to",
          "type": "address"
        },
        {
          "internalType": "uint256",
          "name": "tokenId",
          "type": "uint256"
        },
        {
          "internalType": "bytes",
          "name": "data",
          "type": "bytes"
        }
      ],
      "name": "safeTransferFrom",
      "outputs": [],
      "stateMutability": "nonpayable",
      "type": "function"
    },
    {
      "inputs": [
        {
          "internalType": "address",
          "name": "operator",
          "type": "address"
        },
        {
          "internalType": "bool",
          "name": "approved",
          "type": "bool"
        }
      ],
      "name": "setApprovalForAll",
      "outputs": [],
      "stateMutability": "nonpayable",
      "type": "function"
    },
    {
      "inputs": [
        {
          "internalType": "uint256",
          "name": "newFee",
          "type": "uint256"
        }
      ],
      "name": "setFixedFee",
      "outputs": [],
      "stateMutability": "nonpayable",
      "type": "function"
    },
    {
      "inputs": [
        {
          "internalType": "uint256",
          "name": "stakedAmount",
          "type": "uint256"
        }
      ],
      "name": "stakeDomu",
      "outputs": [],
      "stateMutability": "nonpayable",
      "type": "function"
    },
    {
      "inputs": [
        {
          "internalType": "address",
          "name": "",
          "type": "address"
        }
      ],
      "name": "stakedBalance",
      "outputs": [
        {
          "internalType": "uint256",
          "name": "",
          "type": "uint256"
        }
      ],
      "stateMutability": "view",
      "type": "function"
    },
    {
      "inputs": [
        {
          "internalType": "string",
          "name": "_ipfs",
          "type": "string"
        },
        {
          "internalType": "bytes32",
          "name": "_hash",
          "type": "bytes32"
        }
      ],
      "name": "submitProposal",
      "outputs": [],
      "stateMutability": "nonpayable",
      "type": "function"
    },
    {
      "inputs": [
        {
          "internalType": "bytes4",
          "name": "interfaceId",
          "type": "bytes4"
        }
      ],
      "name": "supportsInterface",
      "outputs": [
        {
          "internalType": "bool",
          "name": "",
          "type": "bool"
        }
      ],
      "stateMutability": "view",
      "type": "function"
    },
    {
      "inputs": [],
      "name": "symbol",
      "outputs": [
        {
          "internalType": "string",
          "name": "",
          "type": "string"
        }
      ],
      "stateMutability": "view",
      "type": "function"
    },
    {
      "inputs": [
        {
          "internalType": "uint256",
          "name": "tokenId",
          "type": "uint256"
        }
      ],
      "name": "tokenURI",
      "outputs": [
        {
          "internalType": "string",
          "name": "",
          "type": "string"
        }
      ],
      "stateMutability": "view",
      "type": "function"
    },
    {
      "inputs": [],
      "name": "totalStaked",
      "outputs": [
        {
          "internalType": "uint256",
          "name": "",
          "type": "uint256"
        }
      ],
      "stateMutability": "view",
      "type": "function"
    },
    {
      "inputs": [
        {
          "internalType": "address",
          "name": "from",
          "type": "address"
        },
        {
          "internalType": "address",
          "name": "to",
          "type": "address"
        },
        {
          "internalType": "uint256",
          "name": "tokenId",
          "type": "uint256"
        }
      ],
      "name": "transferFrom",
      "outputs": [],
      "stateMutability": "nonpayable",
      "type": "function"
    },
    {
      "inputs": [
        {
          "internalType": "uint256",
          "name": "stakedAmount",
          "type": "uint256"
        }
      ],
      "name": "unstakeDomu",
      "outputs": [],
      "stateMutability": "nonpayable",
      "type": "function"
    },
    {
      "inputs": [
        {
          "internalType": "uint256",
          "name": "_id",
          "type": "uint256"
        },
        {
          "internalType": "bytes32",
          "name": "_hash",
          "type": "bytes32"
        },
        {
          "internalType": "bool",
          "name": "_decision",
          "type": "bool"
        }
      ],
      "name": "validatorDecision",
      "outputs": [],
      "stateMutability": "nonpayable",
      "type": "function"
    },
    {
      "inputs": [
        {
          "internalType": "uint256",
          "name": "",
          "type": "uint256"
        }
      ],
      "name": "validatorList",
      "outputs": [
        {
          "internalType": "address",
          "name": "",
          "type": "address"
        }
      ],
      "stateMutability": "view",
      "type": "function"
    },
    {
      "inputs": [
        {
          "internalType": "address",
          "name": "",
          "type": "address"
        },
        {
          "internalType": "uint256",
          "name": "",
          "type": "uint256"
        }
      ],
      "name": "validatorQueue",
      "outputs": [
        {
          "internalType": "uint256",
          "name": "",
          "type": "uint256"
        }
      ],
      "stateMutability": "view",
      "type": "function"
    },
    {
      "inputs": [
        {
          "internalType": "uint256",
          "name": "",
          "type": "uint256"
        },
        {
          "internalType": "address",
          "name": "",
          "type": "address"
        }
      ],
      "name": "validatorVotes",
      "outputs": [
        {
          "internalType": "bytes32",
          "name": "hash",
          "type": "bytes32"
        },
        {
          "internalType": "bool",
          "name": "voted",
          "type": "bool"
        }
      ],
      "stateMutability": "view",
      "type": "function"
    },
    {
      "inputs": [
        {
          "internalType": "uint256",
          "name": "_id",
          "type": "uint256"
        }
      ],
      "name": "withdrawNFT",
      "outputs": [],
      "stateMutability": "nonpayable",
      "type": "function"
    }
  ],
  "bytecode": "0x608060405234801561001057600080fd5b50614953806100206000396000f3fe608060405234801561001057600080fd5b50600436106102745760003560e01c80636364251411610151578063b048e056116100c3578063c0c53b8b11610087578063c0c53b8b146105ee578063c6311e3f14610601578063c87b56dd14610626578063e91a7ca614610639578063e985e9c51461064c578063ec5568891461068857600080fd5b8063b048e0561461059a578063b0f3af47146105ad578063b7ab4db5146105c0578063b88d4fde146105c8578063b907140d146105db57600080fd5b80638da5cb5b116101155780638da5cb5b14610533578063917bb9981461054657806395d89b4114610559578063a22cb46514610561578063a860ff9814610574578063aa9f8c201461058757600080fd5b806363642514146104d15780636a5bb5d8146104e65780636c0360eb1461050f57806370a0823114610517578063817b1cd21461052a57600080fd5b80632dc66dbc116101ea57806351cfc75d116101ae57806351cfc75d1461040e5780635dbe47e81461042e57806360217267146104415780636133c06314610461578063632f9605146104745780636352211e146104be57600080fd5b80632dc66dbc146103a257806331808831146103b557806334652f7c146103d557806337de8106146103e857806342842e0e146103fb57600080fd5b8063150b7a021161023c578063150b7a021461030957806316273400146103355780631e9ced4d1461035657806322604f931461036957806323b872dd1461037c5780632890e0d71461038f57600080fd5b806301ffc9a714610279578063023245d7146102a157806306fdde03146102b6578063081812fc146102cb578063095ea7b3146102f6575b600080fd5b61028c610287366004613f64565b61069b565b60405190151581526020015b60405180910390f35b6102b46102af366004613f88565b6106ed565b005b6102be6107dc565b6040516102989190613ff1565b6102de6102d9366004613f88565b61086e565b6040516001600160a01b039091168152602001610298565b6102b4610304366004614019565b610895565b61031c6103173660046140d1565b6109aa565b6040516001600160e01b03199091168152602001610298565b610348610343366004614019565b6109bb565b604051908152602001610298565b6102b4610364366004613f88565b6109ec565b6102b4610377366004614151565b610ca1565b6102b461038a3660046141aa565b610f8e565b6102b461039d366004613f88565b610fbf565b61028c6103b03660046141eb565b611049565b6103c86103c3366004613f88565b6110b1565b6040516102989190614239565b6103486103e3366004614019565b61111c565b6102b46103f6366004613f88565b611138565b6102b46104093660046141aa565b611167565b61042161041c366004614247565b611182565b6040516102989190614264565b61028c61043c366004614247565b6111ed565b61034861044f366004614247565b60cd6020526000908152604090205481565b6102b461046f366004613f88565b61124d565b6104a96104823660046142a8565b60d36020908152600092835260408084209091529082529020805460019091015460ff1682565b60408051928352901515602083015201610298565b6102de6104cc366004613f88565b6113f4565b6104d9611454565b60405161029891906142d8565b6102de6104f4366004613f88565b60d2602052600090815260409020546001600160a01b031681565b6102be6115c2565b610348610525366004614247565b6115d1565b61034860d75481565b60cb546102de906001600160a01b031681565b6102b4610554366004614019565b611657565b6102be6116ff565b6102b461056f3660046143aa565b61170e565b60da546102de906001600160a01b031681565b6102b46105953660046143d8565b61171d565b6102de6105a8366004613f88565b6127c9565b60d9546102de906001600160a01b031681565b6103c86127f3565b6102b46105d63660046140d1565b612b19565b6104216105e9366004614247565b612b4b565b6102b46105fc366004614411565b612bb5565b61061461060f366004613f88565b612d6e565b60405161029896959493929190614451565b6102be610634366004613f88565b612e48565b6102b4610647366004613f88565b612fc9565b61028c61065a36600461449a565b6001600160a01b039182166000908152606a6020908152604080832093909416825291909152205460ff1690565b60d8546102de906001600160a01b031681565b60006001600160e01b031982166380ac58cd60e01b14806106cc57506001600160e01b03198216635b5e139f60e01b145b806106e757506301ffc9a760e01b6001600160e01b03198316145b92915050565b600081815260d260205260409020546001600160a01b03163061070f836113f4565b6001600160a01b03161461073e5760405162461bcd60e51b8152600401610735906144c8565b60405180910390fd5b6040516323b872dd60e01b81526001600160a01b038216906323b872dd90610777903390309068056bc75e2d63100000906004016144f0565b6020604051808303816000875af1158015610796573d6000803e3d6000fd5b505050506040513d601f19601f820116820180604052508101906107ba9190614514565b506107c63033846131ad565b600160d6546107d59190614547565b60d6555050565b6060606580546107eb9061455a565b80601f01602080910402602001604051908101604052809291908181526020018280546108179061455a565b80156108645780601f1061083957610100808354040283529160200191610864565b820191906000526020600020905b81548152906001019060200180831161084757829003601f168201915b5050505050905090565b60006108798261331e565b506000908152606960205260409020546001600160a01b031690565b60006108a0826113f4565b9050806001600160a01b0316836001600160a01b03160361090d5760405162461bcd60e51b815260206004820152602160248201527f4552433732313a20617070726f76616c20746f2063757272656e74206f776e656044820152603960f91b6064820152608401610735565b336001600160a01b03821614806109295750610929813361065a565b61099b5760405162461bcd60e51b815260206004820152603d60248201527f4552433732313a20617070726f76652063616c6c6572206973206e6f7420746f60448201527f6b656e206f776e6572206f7220617070726f76656420666f7220616c6c0000006064820152608401610735565b6109a5838361337d565b505050565b630a85bd0160e11b5b949350505050565b60cf60205281600052604060002081815481106109d757600080fd5b90600052602060002001600091509150505481565b6109f46133eb565b60d9546040516370a0823160e01b81523360048201526000916001600160a01b0316906370a0823190602401602060405180830381865afa158015610a3d573d6000803e3d6000fd5b505050506040513d601f19601f82011682018060405250810190610a61919061458e565b11610a7e5760405162461bcd60e51b8152600401610735906145a7565b33600090815260cd6020526040902054811115610ad05760405162461bcd60e51b815260206004820152601060248201526f42616c616e63657320746f6f2062696760801b6044820152606401610735565b60da5460405163a9059cbb60e01b8152336004820152602481018390526001600160a01b039091169063a9059cbb906044016020604051808303816000875af1158015610b21573d6000803e3d6000fd5b505050506040513d601f19601f82011682018060405250810190610b459190614514565b508060d754610b549190614547565b60d75533600090815260cd6020526040902054610b72908290614547565b33600090815260cd6020526040812082905503610c945760005b60cc54811015610c9257336001600160a01b031660cc8281548110610bb357610bb36145cd565b6000918252602090912001546001600160a01b031603610c805760cc8054610bdd90600190614547565b81548110610bed57610bed6145cd565b60009182526020909120015460cc80546001600160a01b039092169183908110610c1957610c196145cd565b9060005260206000200160006101000a8154816001600160a01b0302191690836001600160a01b0316021790555060cc805480610c5857610c586145e3565b600082815260209020810160001990810180546001600160a01b031916905501905550610c94565b80610c8a816145f9565b915050610b8c565b505b610c9e6001609955565b50565b610ca9613e81565b60d9546040516370a0823160e01b81523360048201526000916001600160a01b0316906370a0823190602401602060405180830381865afa158015610cf2573d6000803e3d6000fd5b505050506040513d601f19601f82011682018060405250810190610d16919061458e565b11610d335760405162461bcd60e51b8152600401610735906145a7565b60cc5460031115610d7e5760405162461bcd60e51b81526020600482015260156024820152744e6f7420656e6f7567682076616c696461746f727360581b6044820152606401610735565b60da5460d5546040516323b872dd60e01b81526001600160a01b03909216916323b872dd91610db391339130916004016144f0565b6020604051808303816000875af1158015610dd2573d6000803e3d6000fd5b505050506040513d601f19601f82011682018060405250810190610df69190614514565b506000610e016127f3565b80516001600160a01b03908116600090815260d06020908152604080832060d4805482546001808201855593875285872001558387015186168552828520815481548085018355918752858720909101558287015186168552828520905481548084018355918652848620909101553388529087018890526060870185905290860188815260d55460a088015260ce8054928301815590925285517fd36cd1c74ef8d7326d8021b776c18fb5a5724b7f7bc93c2f42e43e10ef27d12a600990920291820180546001600160a01b03191691909416178355905192935084927fd36cd1c74ef8d7326d8021b776c18fb5a5724b7f7bc93c2f42e43e10ef27d12b90910190610f0e9082614660565b50604082015160028201556060820151610f2e9060038084019190613ec3565b506080820151600682015560a0820151600782015560c09091015160089091015533600090815260cf60209081526040822060d48054825460018181018555938652939094209092019290925554610f8591614720565b60d45550505050565b610f983382613444565b610fb45760405162461bcd60e51b815260040161073590614733565b6109a58383836131ad565b60da546040516323b872dd60e01b81526001600160a01b03909116906323b872dd90610ffc903390309068056bc75e2d63100000906004016144f0565b6020604051808303816000875af115801561101b573d6000803e3d6000fd5b505050506040513d601f19601f8201168201806040525081019061103f9190614514565b50610c9e816134c2565b6000611054336111ed565b15156001146110755760405162461bcd60e51b8152600401610735906144c8565b8160ce8481548110611089576110896145cd565b906000526020600020906009020160020154036110a8575060016106e7565b50600092915050565b6110b9613f1b565b60ce82815481106110cc576110cc6145cd565b600091825260209091206040805160608101918290529260090290910160039081019182845b81546001600160a01b031681526001909101906020018083116110f2575b50505050509050919050565b60d060205281600052604060002081815481106109d757600080fd5b60cb546001600160a01b031633146111625760405162461bcd60e51b8152600401610735906144c8565b60d555565b6109a583838360405180602001604052806000815250612b19565b6001600160a01b038116600090815260d0602090815260409182902080548351818402810184019094528084526060939283018282801561111057602002820191906000526020600020905b8154815260200190600101908083116111ce5750505050509050919050565b6000805b60cc548110156110a857826001600160a01b031660cc8281548110611218576112186145cd565b6000918252602090912001546001600160a01b03160361123b5750600192915050565b80611245816145f9565b9150506111f1565b6112556133eb565b60d9546040516370a0823160e01b81523360048201526000916001600160a01b0316906370a0823190602401602060405180830381865afa15801561129e573d6000803e3d6000fd5b505050506040513d601f19601f820116820180604052508101906112c2919061458e565b116112df5760405162461bcd60e51b8152600401610735906145a7565b60da546040516323b872dd60e01b81526001600160a01b03909116906323b872dd90611313903390309086906004016144f0565b6020604051808303816000875af1158015611332573d6000803e3d6000fd5b505050506040513d601f19601f820116820180604052508101906113569190614514565b508060d7546113659190614720565b60d75533600090815260cd6020526040902054611383908290614720565b33600081815260cd602052604090209190915561139f906111ed565b1515600003610c945760cc80546001810182556000919091527f47197230e1e4b29fc0bd84d7d78966c0925452aff72a2a121538b102457e9ebe0180546001600160a01b03191633179055610c9e6001609955565b6000818152606760205260408120546001600160a01b0316806106e75760405162461bcd60e51b8152602060048201526018602482015277115490cdcc8c4e881a5b9d985b1a59081d1bdad95b88125160421b6044820152606401610735565b606060ce805480602002602001604051908101604052809291908181526020016000905b828210156115b95760008481526020908190206040805160e081019091526009850290910180546001600160a01b0316825260018101805492939192918401916114c19061455a565b80601f01602080910402602001604051908101604052809291908181526020018280546114ed9061455a565b801561153a5780601f1061150f5761010080835404028352916020019161153a565b820191906000526020600020905b81548152906001019060200180831161151d57829003601f168201915b505050918352505060028201546020820152604080516060810180835291909201919060038085019182845b81546001600160a01b031681526001909101906020018083116115665750505050508152602001600682015481526020016007820154815260200160088201548152505081526020019060010190611478565b50505050905090565b6060606c80546107eb9061455a565b60006001600160a01b03821661163b5760405162461bcd60e51b815260206004820152602960248201527f4552433732313a2061646472657373207a65726f206973206e6f7420612076616044820152683634b21037bbb732b960b91b6064820152608401610735565b506001600160a01b031660009081526068602052604090205490565b60cb546001600160a01b031633146116815760405162461bcd60e51b8152600401610735906144c8565b60cb5460405163a9059cbb60e01b81526001600160a01b03918216600482015260248101839052839182169063a9059cbb906044016020604051808303816000875af11580156116d5573d6000803e3d6000fd5b505050506040513d601f19601f820116820180604052508101906116f99190614514565b50505050565b6060606680546107eb9061455a565b611719338383613565565b5050565b6117256133eb565b60ce8381548110611738576117386145cd565b60009182526020822060036009909202010101546001600160a01b03163314806117a1575060ce8381548110611770576117706145cd565b9060005260206000209060090201600301600160038110611793576117936145cd565b01546001600160a01b031633145b806117eb575060ce83815481106117ba576117ba6145cd565b90600052602060002090600902016003016002600381106117dd576117dd6145cd565b01546001600160a01b031633145b151560011461182e5760405162461bcd60e51b815260206004820152600f60248201526e2737ba1030903b30b634b230ba37b960891b6044820152606401610735565b600083815260d36020908152604080832033845290915290206001015460ff161561188b5760405162461bcd60e51b815260206004820152600d60248201526c105b1c9958591e481d9bdd1959609a1b6044820152606401610735565b60ce838154811061189e5761189e6145cd565b9060005260206000209060090201600801546000146118f25760405162461bcd60e51b815260206004820152601060248201526f141c9bdc1bdcd85b08191958da59195960821b6044820152606401610735565b8015156000036119d757600061190784613633565b905060005b60038110156119d057336001600160a01b031660ce8681548110611932576119326145cd565b90600052602060002090600902016003018260038110611954576119546145cd565b01546001600160a01b0316036119be578160ce8681548110611978576119786145cd565b9060005260206000209060090201600301826003811061199a5761199a6145cd565b0180546001600160a01b0319166001600160a01b03929092169190911790556119d0565b806119c8816145f9565b91505061190c565b50506127bf565b60ce83815481106119ea576119ea6145cd565b9060005260206000209060090201600601546001611a089190614720565b60ce8481548110611a1b57611a1b6145cd565b600091825260208083206009929092029091016006019290925584815260d382526040808220338352909252208281556001908101805460ff1916909117905560ce805484908110611a6f57611a6f6145cd565b9060005260206000209060090201600601546003036127bf5760008060005b6003811015611b5757600086815260d36020526040812060ce805491929189908110611abc57611abc6145cd565b90600052602060002090600902016003018360038110611ade57611ade6145cd565b01546001600160a01b0316815260208101919091526040016000205460ce805488908110611b0e57611b0e6145cd565b90600052602060002090600902016002015403611b3757611b30836001614720565b9250611b45565b611b42826001614720565b91505b80611b4f816145f9565b915050611a8e565b5081600303611f3d57611c4e60ce8681548110611b7657611b766145cd565b906000526020600020906009020160000160009054906101000a90046001600160a01b03168660ce8881548110611baf57611baf6145cd565b90600052602060002090600902016001018054611bcb9061455a565b80601f0160208091040260200160405190810160405280929190818152602001828054611bf79061455a565b8015611c445780601f10611c1957610100808354040283529160200191611c44565b820191906000526020600020905b815481529060010190602001808311611c2757829003601f168201915b5050505050613904565b600160ce8681548110611c6357611c636145cd565b9060005260206000209060090201600801819055506000600460d554611c899190614796565b60da5460ce80549293506001600160a01b039091169163a9059cbb919089908110611cb657611cb66145cd565b60009182526020909120600360099092020101546040516001600160e01b031960e084901b1681526001600160a01b039091166004820152602481018490526044016020604051808303816000875af1158015611d17573d6000803e3d6000fd5b505050506040513d601f19601f82011682018060405250810190611d3b9190614514565b5060da5460ce80546001600160a01b039092169163a9059cbb919089908110611d6657611d666145cd565b9060005260206000209060090201600301600160038110611d8957611d896145cd565b015460405160e083901b6001600160e01b03191681526001600160a01b039091166004820152602481018490526044016020604051808303816000875af1158015611dd8573d6000803e3d6000fd5b505050506040513d601f19601f82011682018060405250810190611dfc9190614514565b5060da5460ce80546001600160a01b039092169163a9059cbb919089908110611e2757611e276145cd565b9060005260206000209060090201600301600260038110611e4a57611e4a6145cd565b015460405160e083901b6001600160e01b03191681526001600160a01b039091166004820152602481018490526044016020604051808303816000875af1158015611e99573d6000803e3d6000fd5b505050506040513d601f19601f82011682018060405250810190611ebd9190614514565b5060da5460405163a9059cbb60e01b81526001600160a01b0390911660048201819052602482018390529063a9059cbb906044016020604051808303816000875af1158015611f10573d6000803e3d6000fd5b505050506040513d601f19601f82011682018060405250810190611f349190614514565b505050506127bf565b80600303611f5a57600260ce8681548110611c6357611c636145cd565b8160020361239657611f7860ce8681548110611b7657611b766145cd565b600160ce8681548110611f8d57611f8d6145cd565b9060005260206000209060090201600801819055506000600360d554611fb39190614796565b905060005b6003811015611ebd5760ce8781548110611fd457611fd46145cd565b90600052602060002090600902016002015460d36000898152602001908152602001600020600060ce8a8154811061200e5761200e6145cd565b90600052602060002090600902016003018460038110612030576120306145cd565b01546001600160a01b03168152602081019190915260400160002054036121165760da5460ce80546001600160a01b039092169163a9059cbb91908a90811061207b5761207b6145cd565b9060005260206000209060090201600301836003811061209d5761209d6145cd565b015460405160e083901b6001600160e01b03191681526001600160a01b039091166004820152602481018590526044016020604051808303816000875af11580156120ec573d6000803e3d6000fd5b505050506040513d601f19601f820116820180604052508101906121109190614514565b50612384565b60cd600060ce898154811061212d5761212d6145cd565b9060005260206000209060090201600301836003811061214f5761214f6145cd565b01546001600160a01b0316815260208101919091526040016000205460d1546121789190614720565b60d18190555060cd600060ce8981548110612195576121956145cd565b906000526020600020906009020160030183600381106121b7576121b76145cd565b01546001600160a01b0316815260208101919091526040016000205460d7546121e09190614547565b60d781905550600060cd600060ce8a815481106121ff576121ff6145cd565b90600052602060002090600902016003018460038110612221576122216145cd565b01546001600160a01b0316815260208101919091526040016000908120919091555b60cc548110156123825760ce8881548110612260576122606145cd565b90600052602060002090600902016003018260038110612282576122826145cd565b015460cc80546001600160a01b0390921691839081106122a4576122a46145cd565b6000918252602090912001546001600160a01b0316036123705760cc80546122ce90600190614547565b815481106122de576122de6145cd565b60009182526020909120015460cc80546001600160a01b03909216918390811061230a5761230a6145cd565b9060005260206000200160006101000a8154816001600160a01b0302191690836001600160a01b0316021790555060cc805480612349576123496145e3565b600082815260209020810160001990810180546001600160a01b0319169055019055612382565b8061237a816145f9565b915050612243565b505b8061238e816145f9565b915050611fb8565b806002036127bc57600260ce86815481106123b3576123b36145cd565b9060005260206000209060090201600801819055506000600360d5546123d99190614796565b905060005b6003811015611ebd5760ce87815481106123fa576123fa6145cd565b90600052602060002090600902016002015460d36000898152602001908152602001600020600060ce8a81548110612434576124346145cd565b90600052602060002090600902016003018460038110612456576124566145cd565b01546001600160a01b031681526020810191909152604001600020541461253c5760da5460ce80546001600160a01b039092169163a9059cbb91908a9081106124a1576124a16145cd565b906000526020600020906009020160030183600381106124c3576124c36145cd565b015460405160e083901b6001600160e01b03191681526001600160a01b039091166004820152602481018590526044016020604051808303816000875af1158015612512573d6000803e3d6000fd5b505050506040513d601f19601f820116820180604052508101906125369190614514565b506127aa565b60cd600060ce8981548110612553576125536145cd565b90600052602060002090600902016003018360038110612575576125756145cd565b01546001600160a01b0316815260208101919091526040016000205460d15461259e9190614720565b60d18190555060cd600060ce89815481106125bb576125bb6145cd565b906000526020600020906009020160030183600381106125dd576125dd6145cd565b01546001600160a01b0316815260208101919091526040016000205460d7546126069190614547565b60d781905550600060cd600060ce8a81548110612625576126256145cd565b90600052602060002090600902016003018460038110612647576126476145cd565b01546001600160a01b0316815260208101919091526040016000908120919091555b60cc548110156127a85760ce8881548110612686576126866145cd565b906000526020600020906009020160030182600381106126a8576126a86145cd565b015460cc80546001600160a01b0390921691839081106126ca576126ca6145cd565b6000918252602090912001546001600160a01b0316036127965760cc80546126f490600190614547565b81548110612704576127046145cd565b60009182526020909120015460cc80546001600160a01b039092169183908110612730576127306145cd565b9060005260206000200160006101000a8154816001600160a01b0302191690836001600160a01b0316021790555060cc80548061276f5761276f6145e3565b600082815260209020810160001990810180546001600160a01b03191690550190556127a8565b806127a0816145f9565b915050612669565b505b806127b4816145f9565b9150506123de565b50505b6109a56001609955565b60cc81815481106127d957600080fd5b6000918252602090912001546001600160a01b0316905081565b6127fb613f1b565b612803613f1b565b60cc5460030361287e5760005b60038110156128785760cc818154811061282c5761282c6145cd565b6000918252602090912001546001600160a01b0316828260038110612853576128536145cd565b6001600160a01b03909216602092909202015280612870816145f9565b915050612810565b50919050565b60d75460cc805460408051602080840282018101909252828152600093849384938301828280156128d857602002820191906000526020600020905b81546001600160a01b031681526001909101906020018083116128ba575b50939450600193505050505b6004811015612b0f576128f8856001614720565b604080514260208201526bffffffffffffffffffffffff193360601b16918101919091524460548201526074016040516020818303038152906040528051906020012060001c61294891906147aa565b92506000935060005b60cc54811015612afc5760cd6000848381518110612971576129716145cd565b60200260200101516001600160a01b03166001600160a01b0316815260200190815260200160002054856129a59190614720565b9450838510612aea578281815181106129c0576129c06145cd565b6020026020010151876001846129d69190614547565b600381106129e6576129e66145cd565b60200201906001600160a01b031690816001600160a01b03168152505060cd6000848381518110612a1957612a196145cd565b60200260200101516001600160a01b03166001600160a01b031681526020019081526020016000205486612a4d9190614547565b60cc549096508390612a60908490614547565b81518110612a7057612a706145cd565b6020026020010151838281518110612a8a57612a8a6145cd565b6001600160a01b039092166020928302919091019091015260cc546000908490612ab5908590614547565b81518110612ac557612ac56145cd565b60200260200101906001600160a01b031690816001600160a01b031681525050612afc565b80612af4816145f9565b915050612951565b5080612b07816145f9565b9150506128e4565b5050505050919050565b612b233383613444565b612b3f5760405162461bcd60e51b815260040161073590614733565b6116f98484848461391f565b6001600160a01b038116600090815260cf602090815260409182902080548351818402810184019094528084526060939283018282801561111057602002820191906000526020600020908154815260200190600101908083116111ce5750505050509050919050565b600054610100900460ff1615808015612bd55750600054600160ff909116105b80612bef5750303b158015612bef575060005460ff166001145b612c525760405162461bcd60e51b815260206004820152602e60248201527f496e697469616c697a61626c653a20636f6e747261637420697320616c72656160448201526d191e481a5b9a5d1a585b1a5e995960921b6064820152608401610735565b6000805460ff191660011790558015612c75576000805461ff0019166101001790555b612cc26040518060400160405280601081526020016f115b1958dd1c9a58d1185d1853185b9960821b8152506040518060400160405280600381526020016211511360ea1b815250613952565b60cb8054336001600160a01b03199182161790915560da805482166001600160a01b038781169190911790915560d98054831686831617905560d88054909216908416179055600060d1819055670de0b6b3a764000060d55560d681905560d45580156116f9576000805461ff0019169055604051600181527f7f26b83ff96e1f2b6a682f133852f6798a09c465da95921460cefb38474024989060200160405180910390a150505050565b60ce8181548110612d7e57600080fd5b6000918252602090912060099091020180546001820180546001600160a01b03909216935090612dad9061455a565b80601f0160208091040260200160405190810160405280929190818152602001828054612dd99061455a565b8015612e265780601f10612dfb57610100808354040283529160200191612e26565b820191906000526020600020905b815481529060010190602001808311612e0957829003601f168201915b5050505050908060020154908060060154908060070154908060080154905086565b6000818152606760205260409020546060906001600160a01b0316612ec75760405162461bcd60e51b815260206004820152602f60248201527f4552433732314d657461646174613a2055524920717565727920666f72206e6f60448201526e3732bc34b9ba32b73a103a37b5b2b760891b6064820152608401610735565b6000828152606b602052604081208054612ee09061455a565b80601f0160208091040260200160405190810160405280929190818152602001828054612f0c9061455a565b8015612f595780601f10612f2e57610100808354040283529160200191612f59565b820191906000526020600020905b815481529060010190602001808311612f3c57829003601f168201915b505050505090506000612f6a6115c2565b90508051600003612f7c575092915050565b815115612fae578082604051602001612f969291906147be565b60405160208183030381529060405292505050919050565b80612fb885613983565b604051602001612f969291906147be565b60da5460d5546040516323b872dd60e01b81526001600160a01b03909216916323b872dd91612ffe91339130916004016144f0565b6020604051808303816000875af115801561301d573d6000803e3d6000fd5b505050506040513d601f19601f820116820180604052508101906130419190614514565b5061304d333083610f8e565b600081815260d260205260409020546001600160a01b031661310a5760d85460405163c21ab7f960e01b81523360048201526000916001600160a01b03169063c21ab7f9906024016020604051808303816000875af11580156130b4573d6000803e3d6000fd5b505050506040513d601f19601f820116820180604052508101906130d891906147ed565b600083815260d26020526040902080546001600160a01b0319166001600160a01b039290921691909117905550613199565b600081815260d260205260409081902054905163a9059cbb60e01b815233600482015268056bc75e2d6310000060248201526001600160a01b0390911690819063a9059cbb906044016020604051808303816000875af1158015613172573d6000803e3d6000fd5b505050506040513d601f19601f820116820180604052508101906131969190614514565b50505b60d6546131a7906001614720565b60d65550565b826001600160a01b03166131c0826113f4565b6001600160a01b0316146131e65760405162461bcd60e51b81526004016107359061480a565b6001600160a01b0382166132485760405162461bcd60e51b8152602060048201526024808201527f4552433732313a207472616e7366657220746f20746865207a65726f206164646044820152637265737360e01b6064820152608401610735565b6132558383836001613a16565b826001600160a01b0316613268826113f4565b6001600160a01b03161461328e5760405162461bcd60e51b81526004016107359061480a565b600081815260696020908152604080832080546001600160a01b03199081169091556001600160a01b0387811680865260688552838620805460001901905590871680865283862080546001019055868652606790945282852080549092168417909155905184937fddf252ad1be2c89b69c2b068fc378daa952ba7f163c4a11628f55a4df523b3ef91a4505050565b6000818152606760205260409020546001600160a01b0316610c9e5760405162461bcd60e51b8152602060048201526018602482015277115490cdcc8c4e881a5b9d985b1a59081d1bdad95b88125160421b6044820152606401610735565b600081815260696020526040902080546001600160a01b0319166001600160a01b03841690811790915581906133b2826113f4565b6001600160a01b03167f8c5be1e5ebec7d5bd14f71427d1e84f3dd0314c0f7b2291e5b200ac8c7c3b92560405160405180910390a45050565b60026099540361343d5760405162461bcd60e51b815260206004820152601f60248201527f5265656e7472616e637947756172643a207265656e7472616e742063616c6c006044820152606401610735565b6002609955565b600080613450836113f4565b9050806001600160a01b0316846001600160a01b0316148061349757506001600160a01b038082166000908152606a602090815260408083209388168352929052205460ff165b806109b35750836001600160a01b03166134b08461086e565b6001600160a01b031614949350505050565b60006134cd826113f4565b90506134dd816000846001613a16565b6134e6826113f4565b600083815260696020908152604080832080546001600160a01b03199081169091556001600160a01b0385168085526068845282852080546000190190558785526067909352818420805490911690555192935084927fddf252ad1be2c89b69c2b068fc378daa952ba7f163c4a11628f55a4df523b3ef908390a45050565b816001600160a01b0316836001600160a01b0316036135c65760405162461bcd60e51b815260206004820152601960248201527f4552433732313a20617070726f766520746f2063616c6c6572000000000000006044820152606401610735565b6001600160a01b038381166000818152606a6020908152604080832094871680845294825291829020805460ff191686151590811790915591519182527f17307eab39ab6107e8899845ad3d59bd9653f200f220920489ca2b5937696c31910160405180910390a3505050565b60008060ce8381548110613649576136496145cd565b600091825260208220600991909102016003015460ce80546001600160a01b039092169350908590811061367f5761367f6145cd565b90600052602060002090600902016003016001600381106136a2576136a26145cd565b015460ce80546001600160a01b039092169250600091869081106136c8576136c86145cd565b90600052602060002090600902016003016002600381106136eb576136eb6145cd565b01546001600160a01b03908116600081815260cd60205260408082205486851683528183205494881683529082205460d75493955091938493919290916137329190614547565b61373c9190614547565b6137469190614547565b90506000613755826001614720565b604080514260208201526bffffffffffffffffffffffff193360601b16918101919091524460548201526074016040516020818303038152906040528051906020012060001c6137a591906147aa565b905060005b60cc548110156138f557866001600160a01b031660cc82815481106137d1576137d16145cd565b6000918252602090912001546001600160a01b031614806138215750856001600160a01b031660cc828154811061380a5761380a6145cd565b6000918252602090912001546001600160a01b0316145b8061385b5750846001600160a01b031660cc8281548110613844576138446145cd565b6000918252602090912001546001600160a01b0316145b6138e35760cd600060cc8381548110613876576138766145cd565b60009182526020808320909101546001600160a01b031683528201929092526040019020546138a59085614720565b93508184106138e35760cc81815481106138c1576138c16145cd565b6000918252602090912001546001600160a01b03169998505050505050505050565b806138ed816145f9565b9150506137aa565b50600098975050505050505050565b6109a583838360405180602001604052806000815250613a9e565b61392a8484846131ad565b61393684848484613ab2565b6116f95760405162461bcd60e51b81526004016107359061484f565b600054610100900460ff166139795760405162461bcd60e51b8152600401610735906148a1565b6117198282613bb0565b6060600061399083613bf0565b600101905060008167ffffffffffffffff8111156139b0576139b0614045565b6040519080825280601f01601f1916602001820160405280156139da576020820181803683370190505b5090508181016020015b600019016f181899199a1a9b1b9c1cb0b131b232b360811b600a86061a8153600a85049450846139e457509392505050565b60018111156116f9576001600160a01b03841615613a5c576001600160a01b03841660009081526068602052604081208054839290613a56908490614547565b90915550505b6001600160a01b038316156116f9576001600160a01b03831660009081526068602052604081208054839290613a93908490614720565b909155505050505050565b613aa9848484613cc8565b61393660008585845b60006001600160a01b0384163b15613ba857604051630a85bd0160e11b81526001600160a01b0385169063150b7a0290613af69033908990889088906004016148ec565b6020604051808303816000875af1925050508015613b31575060408051601f3d908101601f19168201909252613b2e91810190614929565b60015b613b8e573d808015613b5f576040519150601f19603f3d011682016040523d82523d6000602084013e613b64565b606091505b508051600003613b865760405162461bcd60e51b81526004016107359061484f565b805181602001fd5b6001600160e01b031916630a85bd0160e11b1490506109b3565b5060016109b3565b600054610100900460ff16613bd75760405162461bcd60e51b8152600401610735906148a1565b6065613be38382614660565b5060666109a58282614660565b60008072184f03e93ff9f4daa797ed6e38ed64bf6a1f0160401b8310613c2f5772184f03e93ff9f4daa797ed6e38ed64bf6a1f0160401b830492506040015b6d04ee2d6d415b85acef81000000008310613c5b576d04ee2d6d415b85acef8100000000830492506020015b662386f26fc100008310613c7957662386f26fc10000830492506010015b6305f5e1008310613c91576305f5e100830492506008015b6127108310613ca557612710830492506004015b60648310613cb7576064830492506002015b600a83106106e75760010192915050565b6001600160a01b038316613d1e5760405162461bcd60e51b815260206004820181905260248201527f4552433732313a206d696e7420746f20746865207a65726f20616464726573736044820152606401610735565b6000828152606760205260409020546001600160a01b031615613d835760405162461bcd60e51b815260206004820152601c60248201527f4552433732313a20746f6b656e20616c7265616479206d696e746564000000006044820152606401610735565b613d91600084846001613a16565b6000828152606760205260409020546001600160a01b031615613df65760405162461bcd60e51b815260206004820152601c60248201527f4552433732313a20746f6b656e20616c7265616479206d696e746564000000006044820152606401610735565b6001600160a01b0383166000818152606860209081526040808320805460010190558583526067825280832080546001600160a01b031916909417909355606b905220613e438282614660565b5060405182906001600160a01b038516906000907fddf252ad1be2c89b69c2b068fc378daa952ba7f163c4a11628f55a4df523b3ef908290a4505050565b6040805160e081018252600080825260606020830181905292820152908101613ea8613f1b565b81526020016000815260200160008152602001600081525090565b8260038101928215613f0b579160200282015b82811115613f0b57825182546001600160a01b0319166001600160a01b03909116178255602090920191600190910190613ed6565b50613f17929150613f39565b5090565b60405180606001604052806003906020820280368337509192915050565b5b80821115613f175760008155600101613f3a565b6001600160e01b031981168114610c9e57600080fd5b600060208284031215613f7657600080fd5b8135613f8181613f4e565b9392505050565b600060208284031215613f9a57600080fd5b5035919050565b60005b83811015613fbc578181015183820152602001613fa4565b50506000910152565b60008151808452613fdd816020860160208601613fa1565b601f01601f19169290920160200192915050565b602081526000613f816020830184613fc5565b6001600160a01b0381168114610c9e57600080fd5b6000806040838503121561402c57600080fd5b823561403781614004565b946020939093013593505050565b634e487b7160e01b600052604160045260246000fd5b600067ffffffffffffffff8084111561407657614076614045565b604051601f8501601f19908116603f0116810190828211818310171561409e5761409e614045565b816040528093508581528686860111156140b757600080fd5b858560208301376000602087830101525050509392505050565b600080600080608085870312156140e757600080fd5b84356140f281614004565b9350602085013561410281614004565b925060408501359150606085013567ffffffffffffffff81111561412557600080fd5b8501601f8101871361413657600080fd5b6141458782356020840161405b565b91505092959194509250565b6000806040838503121561416457600080fd5b823567ffffffffffffffff81111561417b57600080fd5b8301601f8101851361418c57600080fd5b61419b8582356020840161405b565b95602094909401359450505050565b6000806000606084860312156141bf57600080fd5b83356141ca81614004565b925060208401356141da81614004565b929592945050506040919091013590565b600080604083850312156141fe57600080fd5b50508035926020909101359150565b8060005b60038110156116f95781516001600160a01b0316845260209384019390910190600101614211565b606081016106e7828461420d565b60006020828403121561425957600080fd5b8135613f8181614004565b6020808252825182820181905260009190848201906040850190845b8181101561429c57835183529284019291840191600101614280565b50909695505050505050565b600080604083850312156142bb57600080fd5b8235915060208301356142cd81614004565b809150509250929050565b60006020808301818452808551808352604092508286019150828160051b87010184880160005b8381101561438e57888303603f19018552815180516001600160a01b03168452878101516101208986018190529061433982870182613fc5565b91505087820151888601526060808301516143568288018261420d565b5050608082015160c08681019190915260a083015160e0870152909101516101009094019390935293860193908601906001016142ff565b509098975050505050505050565b8015158114610c9e57600080fd5b600080604083850312156143bd57600080fd5b82356143c881614004565b915060208301356142cd8161439c565b6000806000606084860312156143ed57600080fd5b833592506020840135915060408401356144068161439c565b809150509250925092565b60008060006060848603121561442657600080fd5b833561443181614004565b9250602084013561444181614004565b9150604084013561440681614004565b6001600160a01b038716815260c06020820181905260009061447590830188613fc5565b90508560408301528460608301528360808301528260a0830152979650505050505050565b600080604083850312156144ad57600080fd5b82356144b881614004565b915060208301356142cd81614004565b6020808252600e908201526d139bdd08185d5d1a1bdc9a5e995960921b604082015260600190565b6001600160a01b039384168152919092166020820152604081019190915260600190565b60006020828403121561452657600080fd5b8151613f818161439c565b634e487b7160e01b600052601160045260246000fd5b818103818111156106e7576106e7614531565b600181811c9082168061456e57607f821691505b60208210810361287857634e487b7160e01b600052602260045260246000fd5b6000602082840312156145a057600080fd5b5051919050565b6020808252600c908201526b139bdd081d995c9a599a595960a21b604082015260600190565b634e487b7160e01b600052603260045260246000fd5b634e487b7160e01b600052603160045260246000fd5b60006001820161460b5761460b614531565b5060010190565b601f8211156109a557600081815260208120601f850160051c810160208610156146395750805b601f850160051c820191505b8181101561465857828155600101614645565b505050505050565b815167ffffffffffffffff81111561467a5761467a614045565b61468e81614688845461455a565b84614612565b602080601f8311600181146146c357600084156146ab5750858301515b600019600386901b1c1916600185901b178555614658565b600085815260208120601f198616915b828110156146f2578886015182559484019460019091019084016146d3565b50858210156147105787850151600019600388901b60f8161c191681555b5050505050600190811b01905550565b808201808211156106e7576106e7614531565b6020808252602d908201527f4552433732313a2063616c6c6572206973206e6f7420746f6b656e206f776e6560408201526c1c881bdc88185c1c1c9bdd9959609a1b606082015260800190565b634e487b7160e01b600052601260045260246000fd5b6000826147a5576147a5614780565b500490565b6000826147b9576147b9614780565b500690565b600083516147d0818460208801613fa1565b8351908301906147e4818360208801613fa1565b01949350505050565b6000602082840312156147ff57600080fd5b8151613f8181614004565b60208082526025908201527f4552433732313a207472616e736665722066726f6d20696e636f72726563742060408201526437bbb732b960d91b606082015260800190565b60208082526032908201527f4552433732313a207472616e7366657220746f206e6f6e20455243373231526560408201527131b2b4bb32b91034b6b83632b6b2b73a32b960711b606082015260800190565b6020808252602b908201527f496e697469616c697a61626c653a20636f6e7472616374206973206e6f74206960408201526a6e697469616c697a696e6760a81b606082015260800190565b6001600160a01b038581168252841660208201526040810183905260806060820181905260009061491f90830184613fc5565b9695505050505050565b60006020828403121561493b57600080fd5b8151613f8181613f4e56fea164736f6c6343000810000a",
  "linkReferences": {},
  "deployedLinkReferences": {}
}