{
  "_format": "hh-sol-artifact-1",
  "contractName": "ERC721Upgradeable",
  "sourceName": "contracts/ElectricDataLand.sol",
  "abi": [
    {
      "anonymous": false,
      "inputs": [
        {
          "indexed": true,
          "internalType": "address",
          "name": "owner",
          "type": "address"
        },
        {
          "indexed": true,
          "internalType": "address",
          "name": "approved",
          "type": "address"
        },
        {
          "indexed": true,
          "internalType": "uint256",
          "name": "tokenId",
          "type": "uint256"
        }
      ],
      "name": "Approval",
      "type": "event"
    },
    {
      "anonymous": false,
      "inputs": [
        {
          "indexed": true,
          "internalType": "address",
          "name": "owner",
          "type": "address"
        },
        {
          "indexed": true,
          "internalType": "address",
          "name": "operator",
          "type": "address"
        },
        {
          "indexed": false,
          "internalType": "bool",
          "name": "approved",
          "type": "bool"
        }
      ],
      "name": "ApprovalForAll",
      "type": "event"
    },
    {
      "anonymous": false,
      "inputs": [
        {
          "indexed": false,
          "internalType": "uint8",
          "name": "version",
          "type": "uint8"
        }
      ],
      "name": "Initialized",
      "type": "event"
    },
    {
      "anonymous": false,
      "inputs": [
        {
          "indexed": true,
          "internalType": "address",
          "name": "from",
          "type": "address"
        },
        {
          "indexed": true,
          "internalType": "address",
          "name": "to",
          "type": "address"
        },
        {
          "indexed": true,
          "internalType": "uint256",
          "name": "tokenId",
          "type": "uint256"
        }
      ],
      "name": "Transfer",
      "type": "event"
    },
    {
      "inputs": [
        {
          "internalType": "address",
          "name": "to",
          "type": "address"
        },
        {
          "internalType": "uint256",
          "name": "tokenId",
          "type": "uint256"
        }
      ],
      "name": "approve",
      "outputs": [],
      "stateMutability": "nonpayable",
      "type": "function"
    },
    {
      "inputs": [
        {
          "internalType": "address",
          "name": "owner",
          "type": "address"
        }
      ],
      "name": "balanceOf",
      "outputs": [
        {
          "internalType": "uint256",
          "name": "",
          "type": "uint256"
        }
      ],
      "stateMutability": "view",
      "type": "function"
    },
    {
      "inputs": [],
      "name": "baseURI",
      "outputs": [
        {
          "internalType": "string",
          "name": "",
          "type": "string"
        }
      ],
      "stateMutability": "view",
      "type": "function"
    },
    {
      "inputs": [
        {
          "internalType": "uint256",
          "name": "tokenId",
          "type": "uint256"
        }
      ],
      "name": "getApproved",
      "outputs": [
        {
          "internalType": "address",
          "name": "",
          "type": "address"
        }
      ],
      "stateMutability": "view",
      "type": "function"
    },
    {
      "inputs": [
        {
          "internalType": "address",
          "name": "owner",
          "type": "address"
        },
        {
          "internalType": "address",
          "name": "operator",
          "type": "address"
        }
      ],
      "name": "isApprovedForAll",
      "outputs": [
        {
          "internalType": "bool",
          "name": "",
          "type": "bool"
        }
      ],
      "stateMutability": "view",
      "type": "function"
    },
    {
      "inputs": [],
      "name": "name",
      "outputs": [
        {
          "internalType": "string",
          "name": "",
          "type": "string"
        }
      ],
      "stateMutability": "view",
      "type": "function"
    },
    {
      "inputs": [
        {
          "internalType": "uint256",
          "name": "tokenId",
          "type": "uint256"
        }
      ],
      "name": "ownerOf",
      "outputs": [
        {
          "internalType": "address",
          "name": "",
          "type": "address"
        }
      ],
      "stateMutability": "view",
      "type": "function"
    },
    {
      "inputs": [
        {
          "internalType": "address",
          "name": "from",
          "type": "address"
        },
        {
          "internalType": "address",
          "name": "to",
          "type": "address"
        },
        {
          "internalType": "uint256",
          "name": "tokenId",
          "type": "uint256"
        }
      ],
      "name": "safeTransferFrom",
      "outputs": [],
      "stateMutability": "nonpayable",
      "type": "function"
    },
    {
      "inputs": [
        {
          "internalType": "address",
          "name": "from",
          "type": "address"
        },
        {
          "internalType": "address",
          "name": "to",
          "type": "address"
        },
        {
          "internalType": "uint256",
          "name": "tokenId",
          "type": "uint256"
        },
        {
          "internalType": "bytes",
          "name": "data",
          "type": "bytes"
        }
      ],
      "name": "safeTransferFrom",
      "outputs": [],
      "stateMutability": "nonpayable",
      "type": "function"
    },
    {
      "inputs": [
        {
          "internalType": "address",
          "name": "operator",
          "type": "address"
        },
        {
          "internalType": "bool",
          "name": "approved",
          "type": "bool"
        }
      ],
      "name": "setApprovalForAll",
      "outputs": [],
      "stateMutability": "nonpayable",
      "type": "function"
    },
    {
      "inputs": [
        {
          "internalType": "bytes4",
          "name": "interfaceId",
          "type": "bytes4"
        }
      ],
      "name": "supportsInterface",
      "outputs": [
        {
          "internalType": "bool",
          "name": "",
          "type": "bool"
        }
      ],
      "stateMutability": "view",
      "type": "function"
    },
    {
      "inputs": [],
      "name": "symbol",
      "outputs": [
        {
          "internalType": "string",
          "name": "",
          "type": "string"
        }
      ],
      "stateMutability": "view",
      "type": "function"
    },
    {
      "inputs": [
        {
          "internalType": "uint256",
          "name": "tokenId",
          "type": "uint256"
        }
      ],
      "name": "tokenURI",
      "outputs": [
        {
          "internalType": "string",
          "name": "",
          "type": "string"
        }
      ],
      "stateMutability": "view",
      "type": "function"
    },
    {
      "inputs": [
        {
          "internalType": "address",
          "name": "from",
          "type": "address"
        },
        {
          "internalType": "address",
          "name": "to",
          "type": "address"
        },
        {
          "internalType": "uint256",
          "name": "tokenId",
          "type": "uint256"
        }
      ],
      "name": "transferFrom",
      "outputs": [],
      "stateMutability": "nonpayable",
      "type": "function"
    }
  ],
  "bytecode": "0x608060405234801561001057600080fd5b506112c6806100206000396000f3fe608060405234801561001057600080fd5b50600436106100ea5760003560e01c80636c0360eb1161008c578063a22cb46511610066578063a22cb465146101d6578063b88d4fde146101e9578063c87b56dd146101fc578063e985e9c51461020f57600080fd5b80636c0360eb146101a557806370a08231146101ad57806395d89b41146101ce57600080fd5b8063095ea7b3116100c8578063095ea7b31461015757806323b872dd1461016c57806342842e0e1461017f5780636352211e1461019257600080fd5b806301ffc9a7146100ef57806306fdde0314610117578063081812fc1461012c575b600080fd5b6101026100fd366004610e38565b610222565b60405190151581526020015b60405180910390f35b61011f610274565b60405161010e9190610eac565b61013f61013a366004610ebf565b610306565b6040516001600160a01b03909116815260200161010e565b61016a610165366004610ef4565b61032d565b005b61016a61017a366004610f1e565b610447565b61016a61018d366004610f1e565b610478565b61013f6101a0366004610ebf565b610493565b61011f6104f3565b6101c06101bb366004610f5a565b610502565b60405190815260200161010e565b61011f610588565b61016a6101e4366004610f75565b610597565b61016a6101f7366004610fc7565b6105a6565b61011f61020a366004610ebf565b6105de565b61010261021d3660046110a3565b61075f565b60006001600160e01b031982166380ac58cd60e01b148061025357506001600160e01b03198216635b5e139f60e01b145b8061026e57506301ffc9a760e01b6001600160e01b03198316145b92915050565b606060658054610283906110d6565b80601f01602080910402602001604051908101604052809291908181526020018280546102af906110d6565b80156102fc5780601f106102d1576101008083540402835291602001916102fc565b820191906000526020600020905b8154815290600101906020018083116102df57829003601f168201915b5050505050905090565b60006103118261078d565b506000908152606960205260409020546001600160a01b031690565b600061033882610493565b9050806001600160a01b0316836001600160a01b0316036103aa5760405162461bcd60e51b815260206004820152602160248201527f4552433732313a20617070726f76616c20746f2063757272656e74206f776e656044820152603960f91b60648201526084015b60405180910390fd5b336001600160a01b03821614806103c657506103c6813361075f565b6104385760405162461bcd60e51b815260206004820152603d60248201527f4552433732313a20617070726f76652063616c6c6572206973206e6f7420746f60448201527f6b656e206f776e6572206f7220617070726f76656420666f7220616c6c00000060648201526084016103a1565b61044283836107ef565b505050565b610451338261085d565b61046d5760405162461bcd60e51b81526004016103a190611110565b6104428383836108bc565b610442838383604051806020016040528060008152506105a6565b6000818152606760205260408120546001600160a01b03168061026e5760405162461bcd60e51b8152602060048201526018602482015277115490cdcc8c4e881a5b9d985b1a59081d1bdad95b88125160421b60448201526064016103a1565b6060606c8054610283906110d6565b60006001600160a01b03821661056c5760405162461bcd60e51b815260206004820152602960248201527f4552433732313a2061646472657373207a65726f206973206e6f7420612076616044820152683634b21037bbb732b960b91b60648201526084016103a1565b506001600160a01b031660009081526068602052604090205490565b606060668054610283906110d6565b6105a2338383610a2d565b5050565b6105b0338361085d565b6105cc5760405162461bcd60e51b81526004016103a190611110565b6105d884848484610afb565b50505050565b6000818152606760205260409020546060906001600160a01b031661065d5760405162461bcd60e51b815260206004820152602f60248201527f4552433732314d657461646174613a2055524920717565727920666f72206e6f60448201526e3732bc34b9ba32b73a103a37b5b2b760891b60648201526084016103a1565b6000828152606b602052604081208054610676906110d6565b80601f01602080910402602001604051908101604052809291908181526020018280546106a2906110d6565b80156106ef5780601f106106c4576101008083540402835291602001916106ef565b820191906000526020600020905b8154815290600101906020018083116106d257829003601f168201915b5050505050905060006107006104f3565b90508051600003610712575092915050565b81511561074457808260405160200161072c92919061115d565b60405160208183030381529060405292505050919050565b8061074e85610b2e565b60405160200161072c92919061115d565b6001600160a01b039182166000908152606a6020908152604080832093909416825291909152205460ff1690565b6000818152606760205260409020546001600160a01b03166107ec5760405162461bcd60e51b8152602060048201526018602482015277115490cdcc8c4e881a5b9d985b1a59081d1bdad95b88125160421b60448201526064016103a1565b50565b600081815260696020526040902080546001600160a01b0319166001600160a01b038416908117909155819061082482610493565b6001600160a01b03167f8c5be1e5ebec7d5bd14f71427d1e84f3dd0314c0f7b2291e5b200ac8c7c3b92560405160405180910390a45050565b60008061086983610493565b9050806001600160a01b0316846001600160a01b031614806108905750610890818561075f565b806108b45750836001600160a01b03166108a984610306565b6001600160a01b0316145b949350505050565b826001600160a01b03166108cf82610493565b6001600160a01b0316146108f55760405162461bcd60e51b81526004016103a19061118c565b6001600160a01b0382166109575760405162461bcd60e51b8152602060048201526024808201527f4552433732313a207472616e7366657220746f20746865207a65726f206164646044820152637265737360e01b60648201526084016103a1565b6109648383836001610bc1565b826001600160a01b031661097782610493565b6001600160a01b03161461099d5760405162461bcd60e51b81526004016103a19061118c565b600081815260696020908152604080832080546001600160a01b03199081169091556001600160a01b0387811680865260688552838620805460001901905590871680865283862080546001019055868652606790945282852080549092168417909155905184937fddf252ad1be2c89b69c2b068fc378daa952ba7f163c4a11628f55a4df523b3ef91a4505050565b816001600160a01b0316836001600160a01b031603610a8e5760405162461bcd60e51b815260206004820152601960248201527f4552433732313a20617070726f766520746f2063616c6c65720000000000000060448201526064016103a1565b6001600160a01b038381166000818152606a6020908152604080832094871680845294825291829020805460ff191686151590811790915591519182527f17307eab39ab6107e8899845ad3d59bd9653f200f220920489ca2b5937696c31910160405180910390a3505050565b610b068484846108bc565b610b1284848484610c49565b6105d85760405162461bcd60e51b81526004016103a1906111d1565b60606000610b3b83610d4a565b600101905060008167ffffffffffffffff811115610b5b57610b5b610fb1565b6040519080825280601f01601f191660200182016040528015610b85576020820181803683370190505b5090508181016020015b600019016f181899199a1a9b1b9c1cb0b131b232b360811b600a86061a8153600a8504945084610b8f57509392505050565b60018111156105d8576001600160a01b03841615610c07576001600160a01b03841660009081526068602052604081208054839290610c01908490611239565b90915550505b6001600160a01b038316156105d8576001600160a01b03831660009081526068602052604081208054839290610c3e90849061124c565b909155505050505050565b60006001600160a01b0384163b15610d3f57604051630a85bd0160e11b81526001600160a01b0385169063150b7a0290610c8d90339089908890889060040161125f565b6020604051808303816000875af1925050508015610cc8575060408051601f3d908101601f19168201909252610cc59181019061129c565b60015b610d25573d808015610cf6576040519150601f19603f3d011682016040523d82523d6000602084013e610cfb565b606091505b508051600003610d1d5760405162461bcd60e51b81526004016103a1906111d1565b805181602001fd5b6001600160e01b031916630a85bd0160e11b1490506108b4565b506001949350505050565b60008072184f03e93ff9f4daa797ed6e38ed64bf6a1f0160401b8310610d895772184f03e93ff9f4daa797ed6e38ed64bf6a1f0160401b830492506040015b6d04ee2d6d415b85acef81000000008310610db5576d04ee2d6d415b85acef8100000000830492506020015b662386f26fc100008310610dd357662386f26fc10000830492506010015b6305f5e1008310610deb576305f5e100830492506008015b6127108310610dff57612710830492506004015b60648310610e11576064830492506002015b600a831061026e5760010192915050565b6001600160e01b0319811681146107ec57600080fd5b600060208284031215610e4a57600080fd5b8135610e5581610e22565b9392505050565b60005b83811015610e77578181015183820152602001610e5f565b50506000910152565b60008151808452610e98816020860160208601610e5c565b601f01601f19169290920160200192915050565b602081526000610e556020830184610e80565b600060208284031215610ed157600080fd5b5035919050565b80356001600160a01b0381168114610eef57600080fd5b919050565b60008060408385031215610f0757600080fd5b610f1083610ed8565b946020939093013593505050565b600080600060608486031215610f3357600080fd5b610f3c84610ed8565b9250610f4a60208501610ed8565b9150604084013590509250925092565b600060208284031215610f6c57600080fd5b610e5582610ed8565b60008060408385031215610f8857600080fd5b610f9183610ed8565b915060208301358015158114610fa657600080fd5b809150509250929050565b634e487b7160e01b600052604160045260246000fd5b60008060008060808587031215610fdd57600080fd5b610fe685610ed8565b9350610ff460208601610ed8565b925060408501359150606085013567ffffffffffffffff8082111561101857600080fd5b818701915087601f83011261102c57600080fd5b81358181111561103e5761103e610fb1565b604051601f8201601f19908116603f0116810190838211818310171561106657611066610fb1565b816040528281528a602084870101111561107f57600080fd5b82602086016020830137600060208483010152809550505050505092959194509250565b600080604083850312156110b657600080fd5b6110bf83610ed8565b91506110cd60208401610ed8565b90509250929050565b600181811c908216806110ea57607f821691505b60208210810361110a57634e487b7160e01b600052602260045260246000fd5b50919050565b6020808252602d908201527f4552433732313a2063616c6c6572206973206e6f7420746f6b656e206f776e6560408201526c1c881bdc88185c1c1c9bdd9959609a1b606082015260800190565b6000835161116f818460208801610e5c565b835190830190611183818360208801610e5c565b01949350505050565b60208082526025908201527f4552433732313a207472616e736665722066726f6d20696e636f72726563742060408201526437bbb732b960d91b606082015260800190565b60208082526032908201527f4552433732313a207472616e7366657220746f206e6f6e20455243373231526560408201527131b2b4bb32b91034b6b83632b6b2b73a32b960711b606082015260800190565b634e487b7160e01b600052601160045260246000fd5b8181038181111561026e5761026e611223565b8082018082111561026e5761026e611223565b6001600160a01b038581168252841660208201526040810183905260806060820181905260009061129290830184610e80565b9695505050505050565b6000602082840312156112ae57600080fd5b8151610e5581610e2256fea164736f6c6343000810000a",
  "linkReferences": {},
  "deployedLinkReferences": {}
}